:0400000002001332B5
:03000B000223E3EA
:03006C0002000E81
:05000E0012079780FEBF
:10006F0075A88275B8082212006F1222EB1207B220
:10007F0090008FE0FAA3E0FBA3E0FC900367EAF0A7
:10008F00A3EBF0A3ECF07582010224CA90009274E6
:10009F0001F01208D09002727402F0900273740291
:1000AF00F090367C75F080121F12900092E0FA608B
:1000BF00209002897403F090028A74FAF0E4A3F09E
:1000CF0090368675F080122024E582900092F080A1
:1000DF00D9021ECE9002727401F09002737402F076
:1000EF009036A275F080121F129002727402F09077
:1000FF0002737401F09036AD75F080121F129002EA
:10010F00727403F09002737402F09036BE75F08033
:10011F00121F129002D07401F0900DAC122309122D
:10012F001ECE9002727401F09002737402F090363A
:10013F00C775F080121F129002727402F090027352
:10014F007401F09036D375F080121F129002727402
:10015F0003F09002737401F09036E375F080121F74
:10016F00129002727404F09002737401F09036F4DE
:10017F0075F080121F129002D07401F0900DAC1226
:10018F002309021ECE9000937401F0900272740145
:10019F00F09002737402F090370375F080121F1203
:1001AF009002727402F09002737402F09037097526
:1001BF00F080121F129002727403F0900273740297
:1001CF00F090370B75F080121F129002727404F0CA
:1001DF009002737402F090371375F080121F129013
:1001EF0002D07401F0900BB8122309121ECE9000AA
:1001FF008FE0FAA3E0FBA3E0FC8A828B838CF07480
:10020F000712340990008FE0FAA3E0FBA3E0FC0A89
:10021F00BA00010B8A828B838CF07403123409901D
:10022F00008FE0FAA3E0FBA3E0FC74022AFAE43BA0
:10023F00FB8A828B838CF0740412340990008FE058
:10024F00FAA3E0FBA3E0FC74032AFAE43BFB8A82E7
:10025F008B838CF0740A123409120867900093E0B4
:10026F00FA604890008FE0FAA3E0FBA3E0FC740271
:10027F002AFAE43BFB8A828B838CF01235CDFA90FD
:10028F00008FE0FBA3E0FCA3E0FD74032BFBE43C39
:10029F00FC8B828C838DF01235CD90026BF08A82AD
:1002AF00121D4CE582900093F080B1021ECE90009B
:1002BF00947401F09002727401F09002737402F062
:1002CF0090370375F080121F129002727402F09033
:1002DF0002737402F090370975F080121F129002AA
:1002EF00727403F09002737402F090370B75F08004
:1002FF00121F129002727404F09002737402F09045
:10030F00372075F080121F129002D07401F0900BFD
:10031F00B8122309121ECE120CEA90008FE0FAA336
:10032F00E0FBA3E0FC8A828B838CF0740712340904
:10033F0090008FE0FAA3E0FBA3E0FC0ABA00010BE8
:10034F008A828B838CF0740212340990008FE0FA4A
:10035F00A3E0FBA3E0FC74022AFAE43BFB8A828B46
:10036F00838CF0740412340990008FE0FAA3E0FB41
:10037F00A3E0FC74032AFAE43BFB8A828B838CF0A4
:10038F007402123409900094E0FA604890008FE0F4
:10039F00FAA3E0FBA3E0FC74022AFAE43BFB8A8297
:1003AF008B838CF01235CDFA90008FE0FBA3E0FC2D
:1003BF00A3E0FD74032BFBE43CFC8B828C838DF05C
:1003CF001235CD90026BF08A82121D4CE58290009F
:1003DF0094F080B1021ECE9000957401F0900272DD
:1003EF007401F09002737402F090370375F080126D
:1003FF001F129002727402F09002737402F0903721
:10040F000975F080121F129002727403F09002733C
:10041F007402F090370B75F080121F1290027274F5
:10042F0004F09002737402F090372D75F080121F54
:10043F00129002D07401F0900BB8122309121ECE45
:10044F0012110290008FE0FAA3E0FBA3E0FC8A8276
:10045F008B838CF0740512340990008FE0FAA3E0BF
:10046F00FBA3E0FC0ABA00010B8A828B838CF07429
:10047F000512340990008FE0FAA3E0FBA3E0FC74AF
:10048F00022AFAE43BFB8A828B838CF074041234C9
:10049F000990008FE0FAA3E0FBA3E0FC74032AFAB3
:1004AF00E43BFB8A828B838CF0740A123409900030
:1004BF0095E0FA604890008FE0FAA3E0FBA3E0FC20
:1004CF0074022AFAE43BFB8A828B838CF01235CDBF
:1004DF00FA90008FE0FBA3E0FCA3E0FD74032BFB7D
:1004EF00E43CFC8B828C838DF01235CD90026BF047
:1004FF008A82121D4CE582900095F080B1021ECECB
:10050F009000967401F09002727401F0900273746F
:10051F0002F090370375F080121F1290027274026E
:10052F00F09002737402F090370975F080121F1269
:10053F009002727403F09002737402F090370B758F
:10054F00F080121F129002727404F0900273740202
:10055F00F090373A75F080121F129002D07401F0AC
:10056F00900BB8122309121ECE12151A90008FE0AD
:10057F00FAA3E0FBA3E0FC8A828B838CF074031256
:10058F00340990008FE0FAA3E0FBA3E0FC0ABA0065
:10059F00010B8A828B838CF0740412340990008FC4
:1005AF00E0FAA3E0FBA3E0FC74022AFAE43BFB8A27
:1005BF00828B838CF0740412340990008FE0FAA3BD
:1005CF00E0FBA3E0FC74032AFAE43BFB8A828B83F3
:1005DF008CF07410123409900096E0FA6048900085
:1005EF008FE0FAA3E0FBA3E0FC74022AFAE43BFBE2
:1005FF008A828B838CF01235CDFA90008FE0FBA3AB
:10060F00E0FCA3E0FD74032BFBE43CFC8B828C83AA
:10061F008DF01235CD90026BF08A82121D4CE5825F
:10062F00900096F080B1021ECE9000977401F0906A
:10063F0002727401F09002737402F090370375F038
:10064F0080121F129002727402F09002737402F003
:10065F0090370975F080121F129002727403F09098
:10066F0002737402F090370B75F080121F12900214
:10067F00727404F09002737402F090374775F08033
:10068F00121F129002D07401F0900BB812230912AE
:10069F001ECE12193390008FE0FAA3E0FBA3E0FC0B
:1006AF008A828B838CF0740712340990008FE0FAE2
:1006BF00A3E0FBA3E0FC0ABA00010B8A828B838CB8
:1006CF00F0740512340990008FE0FAA3E0FBA3E069
:1006DF00FC74022AFAE43BFB8A828B838CF074044D
:1006EF0012340990008FE0FAA3E0FBA3E0FC74033F
:1006FF002AFAE43BFB8A828B838CF0740112340953
:10070F00900097E0FA604890008FE0FAA3E0FBA317
:10071F00E0FC74022AFAE43BFB8A828B838CF01292
:10072F0035CDFA90008FE0FBA3E0FCA3E0FD74034E
:10073F002BFBE43CFC8B828C838DF01235CD900229
:10074F006BF08A82121D4CE582900097F080B10207
:10075F001ECE9002727402F09002737402F0903702
:10076F005475F080121F129002727403F09002738E
:10077F007402F090375E75F080121F129002D074E1
:10078F0001F0900BB802230912007612009B1200A1
:10079F00E31201941202BD1203E612050F1206387E
:0307AF00020761DD
:10367C004D415A452047414D45002061706572749B
:10368C00652045535041434F207061726120696E33
:10369C00696369617200494E53545255434F455307
:1036AC00003129204D6F76696D656E746520636FEE
:1036BC006D00572C532C412C442000434F4D4F2070
:1036CC0047414E484152004163686520756D612049
:1036DC0073616964612000706172612043494D41DE
:1036EC002C44495245492D005441206F75204553B7
:1036FC005155455244410050415353410041004CF7
:10370C00414D42494441004E4F20424549434F4CA4
:10371C00412031004E4F20424549434F4C4120320D
:10372C00004E4F20424549434F4C412033004E4FF1
:10373C0020424549434F4C412034004E4F204245D6
:10374C0049434F4C4120350041474F5354494E4853
:0D375C004F00464F4920505245534F00008A
:1007B20090FFC27401F09002D0E4F090000A12237C
:1007C2000990FFC2743FF09002D0E4F090000A1248
:1007D200230990FFC27406F09002D0E4F090000A60
:1007E20012230990FFC2740CF09002D0E4F0900042
:1007F2000A022309E582900128F0900128E0FABA62
:10080200010E900127E0FB90FFC2747F2BF0803134
:10081200BA020E900127E0FB90FFC274BF2BF0805A
:1008220020BA030E900127E0FB90FFC2748F2BF0D9
:10083200800FBA040C900127E0FA90FFC274CF2A0D
:10084200F09002D0E4F090000A022309E5829001C0
:1008520029F0900129E090FFD2F09002D0E4F090CC
:10086200000A0223097A00BA0400506190012AE4C6
:10087200F0EA04FBEAC454F0FC90012AE0FDBD104A
:10088200005047ED04FE900127F08B82C002C003A6
:10089200C004C005C0061207F6D006D005D004EC8D
:1008A20024E0FFE43400F8ED2FF582E438F583E02C
:1008B200FD1D8D82C004C00612084ED006D004D0A1
:1008C20003D00290012AEEF080AF0A809A229001B2
:1008D2002BE4F090012CF090012DF090012EF0907D
:1008E200012FE4F0900130F0900131F0900132F0EC
:1008F200900133741FF09001347410F0900135743C
:100902001FF09001367410F09001377413F09001CB
:10091200387412F09001397412F090013A7412F0A6
:1009220090013B741FF090013CE4F090013D740E85
:10093200F090013E7404F090013F741EF09001406B
:100942007404F09001417404F09001427404F09038
:100952000143741FF09001447401F0900145740D3D
:10096200F09001467409F09001477418F090014824
:100972007409F09001497419F090014A7409F090D9
:10098200014B7417F090014C7410F090014D7415E6
:10099200F090014E741CF090014F7404F0900150DD
:1009A200740CF09001517405F09001527405F090AE
:1009B20001537412F09001547410F09001557412A6
:1009C200F09001567402F09001577412F0900158A1
:1009D2007412F09001597412F090015A7412F0904E
:1009E200015B7416F090015C7416F090015D741353
:1009F200F090015E7416F090015F7414F090016043
:100A02007417F09001617410F0900162741FF090FD
:100A120001637415F09001647415F090016574110E
:100A2200F09001667404F09001677415F09001680B
:100A32007415F09001697414F090016A741FF07AD1
:100A420000BA08004003020B10EA24A0FBE43400C1
:100A5200FCEA242BF582E43401F583E08B828C835B
:100A6200F0EA24A8FBE43400FCEA2433F582E434FF
:100A720001F583E08B828C83F0EA24B0FBE434003E
:100A8200FCEA243BF582E43401F583E08B828C831B
:100A9200F0EA24B8FBE43400FCEA2443F582E434AF
:100AA20001F583E08B828C83F0EA24C0FBE43400FE
:100AB200FCEA244BF582E43401F583E08B828C83DB
:100AC200F0EA24C8FBE43400FCEA2453F582E4345F
:100AD20001F583E08B828C83F0EA24D0FBE43400BE
:100AE200FCEA245BF582E43401F583E08B828C839B
:100AF200F0EA24D8FBE43400FCEA2463F582E4340F
:100B020001F583E0FD8B828C83F00A020A4390FF99
:100B1200C27440F09002D0E4F090000A1223097AE5
:100B220000BA0800503FEAC40354F8FB7C00BC083A
:100B320000502FEB24A0FDE43400FEEC2DF582E4FE
:100B42003EF583E090FFD2F09002D0E4F090000AEC
:100B5200C002C003C004122309D004D003D0020C87
:100B620080CC0A80BC9000E07402F09000E1740333
:100B7200F09000E27403F09000E37403F09000E45C
:100B82007404F09000E57404F09000E67405F090AF
:100B920000E77402F09000E87404F09000E9740534
:100BA200F09000EA7403F09000EB7403F09000EC14
:100BB2007403F09000ED7403F09000EE7404F09072
:100BC20000EF7404F09000F07406F09000F17402EB
:100BD200F09000F27404F09000F37402F09000F4CC
:100BE2007403F09000F57405F09000F67406F0902E
:100BF20000F77402F09000F87403F09000F97406A4
:100C0200F09000FA7404F09000FB7403F09000FC82
:100C12007403F09000FD7406F09000FE7403F090EF
:100C220000FF7404F09001007402F0900101740559
:100C3200F09001027407F09001037406F090010431
:100C42007406F09001057403F09001067405F090AB
:100C520001077403F09001087405F090010974050E
:100C6200F090010A7403F090010B7405F090010CEE
:100C72007402F090010D7405F090010E7403F0906F
:100C8200010F7402F09001107407F09001117408C2
:100C9200F09001127408F09001137408F09001149E
:100CA2007408F09001157408F09001167408F09021
:100CB20001177408F09001187407F090011974027A
:100CC200F090011A7408F090011B7408F090011C56
:100CD2007408F090011D7408F090011E7407F090E2
:100CE200011F7407F002086790016BE4F090016C39
:100CF200F090016DF090016EF090016FE4F09001C0
:100D020070F0900171F0900172F0900173741BF019
:100D12009001747410F09001757417F0900176745C
:100D220010F09001777413F09001787414F0900130
:100D3200797402F090017A7411F090017B741FF0C3
:100D420090017CE4F090017D7417F090017E7412A2
:100D5200F090017F7402F0900180740BF090018199
:100D62007408F09001827405F0900183741FF09072
:100D720001847401F09001857415F0900186740568
:100D8200F09001877404F0900188741DF09001893D
:100D9200E4F090018A7413F090018B741DF09001BD
:100DA2008C7415F090018D7411F090018E7415F011
:100DB20090018F7415F09001907414F09001917469
:100DC20012F09001927419F0900193741CF090014A
:100DD20094741DF09001957401F09001967403F0E3
:100DE2009001977417F09001987403F09001997430
:100DF2001BF090019A741AF090019B741DF09001FF
:100E02009C7411F090019D7413F090019E7417F080
:100E120090019F7414F09001A07415F09001A174D8
:100E220010F09001A2741FF09001A37406F09001DB
:100E3200A4740FF09001A5740FF09001A6E4F09055
:100E420001A77403F09001A87403F09001A9740340
:100E5200F09001AA741FF07A00BA08004003020F52
:100E620028EA24A0FBE43400FCEA246BF582E43493
:100E720001F583E08B828C83F0EA24A8FBE4340042
:100E8200FCEA2473F582E43401F583E08B828C83DF
:100E9200F0EA24B0FBE43400FCEA247BF582E4347B
:100EA20001F583E08B828C83F0EA24B8FBE4340002
:100EB200FCEA2483F582E43401F583E08B828C839F
:100EC200F0EA24C0FBE43400FCEA248BF582E4342B
:100ED20001F583E08B828C83F0EA24C8FBE43400C2
:100EE200FCEA2493F582E43401F583E08B828C835F
:100EF200F0EA24D0FBE43400FCEA249BF582E434DB
:100F020001F583E08B828C83F0EA24D8FBE4340081
:100F1200FCEA24A3F582E43401F583E0FD8B828CA4
:100F220083F00A020E5B90FFC27440F09002D0E49C
:100F3200F090000A1223097A00BA0800503FEAC46E
:100F42000354F8FB7C00BC0800502FEB24A0FDE406
:100F52003400FEEC2DF582E43EF583E090FFD2F002
:100F62009002D0E4F090000AC002C003C004122331
:100F720009D004D003D0020C80CC0A80BC9000E0DF
:100F82007402F09000E17403F09000E27404F090B7
:100F920000E37403F09000E47403F09000E574033E
:100FA200F09000E67405F09000E77404F09000E819
:100FB2007404F09000E97404F09000EA7402F09076
:100FC20000EB7403F09000EC7404F09000ED7403F5
:100FD200F09000EE7403F09000EF7404F09000F0D3
:100FE2007405F09000F17406F09000F27408F0902D
:100FF20000F37402F09000F47405F09000F57405AB
:10100200F09000F67406F09000F77408F09000F883
:101012007408F09000F97402F09000FA7406F090EF
:1010220000FB7405F09000FC7403F09000FD740660
:10103200F09000FE7404F09000FF7405F09001003F
:101042007405F09001017403F09001027404F090B1
:1010520001037408F09001047404F0900105740314
:10106200F09001067402F09001077403F0900108F9
:101072007406F09001097405F090010A7406F0906C
:10108200010B7403F090010C7404F090010D7402D2
:10109200F090010E7406F090010F7408F0900110A8
:1010A2007407F09001117402F09001127408F0902C
:1010B20001137408F09001147404F0900115740681
:1010C200F09001167407F09001177407F090011860
:1010D2007408F09001197407F090011A7404F090EA
:1010E200011B7407F090011C7408F090011D740834
:1010F200F090011E7407F090011F7404F00208675B
:101102009001ABE4F09001ACF09001ADF09001AE33
:10111200F09001AFE4F09001B0F09001B1F09001D5
:10112200B2F09001B3741BF09001B4741BF0900103
:10113200B57418F09001B67419F09001B7741AF0F2
:101142009001B87411F09001B9741AF09001BA7458
:1011520019F09001BB741FF09001BC7408F090016B
:10116200BD740AF09001BE740AF09001BF740AF0D7
:101172009001C0740AF09001C17402F09001C2742F
:101182001FF09001C3741BF09001C47411F0900120
:10119200C57415F09001C67405F09001C77414F07F
:1011A2009001C87415F09001C97411F09001CA74CD
:1011B2001BF09001CB7419F09001CC7413F09001E4
:1011C200CD7417F09001CE7410F09001CF7403F03B
:1011D2009001D0741BF09001D17419F09001D27477
:1011E20013F09001D37412F09001D4741BF09001AB
:1011F200D5741AF09001D67409F09001D7E4F090FA
:1012020001D87411F09001D97411F09001DA741BB5
:10121200F09001DB7412F09001DC7417F09001DDA4
:101222007410F09001DE7412F09001DF7415F090EA
:1012320001E07414F09001E17413F09001E2741F64
:10124200F09001E3741BF09001E47411F09001E559
:101252007415F09001E6E4F09001E77415F0900146
:10126200E8E4F09001E97415F09001EA741BF07A59
:1012720000BA08004003021340EA24A0FBE4340051
:10128200FCEA24ABF582E43401F583E08B828C83A3
:10129200F0EA24A8FBE43400FCEA24B3F582E43447
:1012A20001F583E08B828C83F0EA24B0FBE4340006
:1012B200FCEA24BBF582E43401F583E08B828C8363
:1012C200F0EA24B8FBE43400FCEA24C3F582E434F7
:1012D20001F583E08B828C83F0EA24C0FBE43400C6
:1012E200FCEA24CBF582E43401F583E08B828C8323
:1012F200F0EA24C8FBE43400FCEA24D3F582E434A7
:1013020001F583E08B828C83F0EA24D0FBE4340085
:10131200FCEA24DBF582E43401F583E08B828C83E2
:10132200F0EA24D8FBE43400FCEA24E3F582E43456
:1013320001F583E0FD8B828C83F00A02127390FF29
:10134200C27440F09002D0E4F090000A1223097AAD
:1013520000BA0800503FEAC40354F8FB7C00BC0802
:1013620000502FEB24A0FDE43400FEEC2DF582E4C6
:101372003EF583E090FFD2F09002D0E4F090000AB4
:10138200C002C003C004122309D004D003D0020C4F
:1013920080CC0A80BC9000E07402F09000E17403FB
:1013A200F09000E27407F09000E37402F09000E421
:1013B2007404F09000E57403F09000E67403F0907A
:1013C20000E77406F09000E87408F09000E97408F1
:1013D200F09000EA7402F09000EB7408F09000ECD8
:1013E2007402F09000ED7404F09000EE7408F09036
:1013F20000EF7408F09000F07403F09000F17404B0
:10140200F09000F27405F09000F37402F09000F492
:101412007405F09000F57404F09000F67406F090F4
:1014220000F77402F09000F87405F09000F9740669
:10143200F09000FA7404F09000FB7406F09000FC47
:101442007403F09000FD7406F09000FE7407F090B3
:1014520000FF7404F09001007403F090010174061F
:10146200F09001027402F09001037404F090010400
:101472007406F09001057405F09001067402F09074
:1014820001077404F09001087405F09001097405D5
:10149200F090010A7406F090010B7404F090010CB4
:1014A2007402F090010D7405F090010E7403F09037
:1014B200010F7407F09001107407F0900111740885
:1014C200F09001127404F09001137403F09001146F
:1014D2007407F09001157408F09001167408F090EA
:1014E20001177403F09001187406F0900119740347
:1014F200F090011A7407F090011B7408F090011C1F
:101502007406F090011D7407F090011E7402F090B1
:10151200011F7407F00208679001EBE4F09001EC00
:10152200F09001EDF09001EEF09001EFE4F0900107
:10153200F0F09001F1F09001F2F09001F3741FF0DD
:101542009001F47419F09001F57415F09001F6749D
:1015520011F09001F77414F09001F87415F09001F5
:10156200F97412F09001FA741AF09001FB741FF0F2
:101572009001FC7401F09001FD7405F09001FE747D
:1015820008F09001FF7411F09002007405F09002CF
:10159200017409F09002027412F0900203741BF0BD
:1015A2009002047411F0900205E4F0900206741B9C
:1015B200F09002077411F0900208E4F090020974AE
:1015C20011F090020A741BF090020B7412F0900258
:1015D2000C740AF090020D7409F090020E7404F07B
:1015E20090020F7419F09002107403F090021174BB
:1015F20019F0900212740BF09002137412F0900220
:10160200147416F09002157413F09002167418F008
:101612009002177412F09002187416F09002197466
:1016220013F090021A741BF090021B741AF09002CD
:101632001C7411F090021D7415F090021E7414F0C7
:1016420090021F7412F09002207415F0900221741F
:1016520010F0900222741FF09002237413F0900293
:10166200247405F09002257409F09002267409F0A2
:101672009002277405F09002287415F090022974E4
:1016820001F090022A741FF07A00BA0800400302A7
:101692001759EA24A0FBE43400FCEA24EBF582E4C7
:1016A2003401F583E08B828C83F0EA24A8FBE434D6
:1016B20000FCEA24F3F582E43401F583E08B828CAA
:1016C20083F0EA24B0FBE43400FCEA24FBF582E474
:1016D2003401F583E08B828C83F0EA24B8FBE43496
:1016E20000FCEA2403F582E43402F583E08B828C69
:1016F20083F0EA24C0FBE43400FCEA240BF582E424
:101702003402F583E08B828C83F0EA24C8FBE43454
:1017120000FCEA2413F582E43402F583E08B828C28
:1017220083F0EA24D0FBE43400FCEA241BF582E4D3
:101732003402F583E08B828C83F0EA24D8FBE43414
:1017420000FCEA2423F582E43402F583E0FD8B8277
:101752008C83F00A02168C90FFC27440F09002D083
:10176200E4F090000A1223097A00BA0800503FEA16
:10177200C40354F8FB7C00BC0800502FEB24A0FDEE
:10178200E43400FEEC2DF582E43EF583E090FFD2D6
:10179200F09002D0E4F090000AC002C003C004122C
:1017A2002309D004D003D0020C80CC0A80BC900064
:1017B200E07402F09000E17408F09000E27403F02B
:1017C2009000E37402F09000E47403F09000E5747A
:1017D20003F09000E67402F09000E77407F09000C6
:1017E200E87407F09000E97402F09000EA7407F0E0
:1017F2009000EB7408F09000EC7408F09000ED7427
:1018020004F09000EE7408F09000EF7402F0900083
:10181200F07406F09000F17405F09000F27406F096
:101822009000F37404F09000F47405F09000F574E5
:1018320004F09000F67404F09000F77404F0900045
:10184200F87403F09000F97406F09000FA7404F052
:101852009000FB7406F09000FC7405F09000FD749B
:1018620003F09000FE7404F09000FF7407F0900102
:10187200007406F09001017404F09001027405F006
:101882009001037406F09001047404F09001057451
:1018920005F09001067405F09001077407F09001BD
:1018A200087406F09001097404F090010A7406F0BD
:1018B20090010B7404F090010C7403F090010D740C
:1018C20005F090010E7403F090010F7408F090017E
:1018D200107407F09001117406F09001127407F071
:1018E2009001137403F09001147405F090011574C3
:1018F20008F09001167407F09001177407F0900138
:10190200187408F09001197406F090011A7407F027
:1019120090011B7408F090011C7406F090011D7474
:1019220007F090011E7405F090011F7408F0020880
:101932006790022BE4F090022CF090022DF09002BE
:101942002EF090022FE4F0900230F0900231F090ED
:101952000232F0900233741FF09002347419F09046
:1019620002357415F09002367411F0900237741437
:10197200F09002387415F09002397412F090023A25
:10198200741AF090023B741FF090023C7401F090C4
:10199200023D7405F090023E7408F090023F74110B
:1019A200F09002407405F09002417409F0900242F6
:1019B2007412F0900243741BF09002447411F09080
:1019C2000245E4F0900246741BF09002477411F055
:1019D200900248E4F09002497411F090024A741B9C
:1019E200F090024B7412F090024C740AF090024D87
:1019F2007409F090024E7404F090024F7419F09042
:101A020002507403F09002517419F0900252740B58
:101A1200F09002537412F09002547416F090025532
:101A22007413F09002567418F09002577412F090EA
:101A320002587416F09002597413F090025A741BF3
:101A4200F090025B741AF090025C7411F090025DE7
:101A52007415F090025E7414F090025F7412F090AC
:101A620002607415F09002617410F09002627417B3
:101A7200F09002637413F09002647405F0900265B2
:101A82007409F09002667409F09002677405F09090
:101A920002687415F09002697401F090026A741F72
:101AA200F07A00BA08004003021B72EA24A0FBE4A9
:101AB2003400FCEA242BF582E43402F583E08B82C5
:101AC2008C83F0EA24A8FBE43400FCEA2433F58298
:101AD200E43402F583E08B828C83F0EA24B0FBE4E9
:101AE2003400FCEA243BF582E43402F583E08B8285
:101AF2008C83F0EA24B8FBE43400FCEA2443F58248
:101B0200E43402F583E08B828C83F0EA24C0FBE4A8
:101B12003400FCEA244BF582E43402F583E08B8244
:101B22008C83F0EA24C8FBE43400FCEA2453F582F7
:101B3200E43402F583E08B828C83F0EA24D0FBE468
:101B42003400FCEA245BF582E43402F583E08B8204
:101B52008C83F0EA24D8FBE43400FCEA2463F582A7
:101B6200E43402F583E0FD8B828C83F00A021AA52D
:101B720090FFC27440F09002D0E4F090000A122369
:101B8200097A00BA0800503FEAC40354F8FB7C000B
:101B9200BC0800502FEB24A0FDE43400FEEC2DF530
:101BA20082E43EF583E090FFD2F09002D0E4F09020
:101BB200000AC002C003C004122309D004D003D01B
:101BC200020C80CC0A80BC9000E07402F09000E12C
:101BD2007403F09000E27403F09000E37402F0905A
:101BE20000E47403F09000E57403F09000E67402E0
:101BF200F09000E77407F09000E87407F09000E9B5
:101C02007402F09000EA7407F09000EB7408F09010
:101C120000EC7408F09000ED7404F09000EE74088B
:101C2200F09000EF7402F09000F07406F09000F172
:101C32007405F09000F27406F09000F37404F090D2
:101C420000F47405F09000F57404F09000F674044A
:101C5200F09000F77404F09000F87403F09000F92B
:101C62007406F09000FA7404F09000FB7406F09091
:101C720000FC7405F09000FD7403F09000FE740403
:101C8200F09000FF7407F09001007406F0900101DB
:101C92007404F09001027405F09001037406F09050
:101CA20001047404F09001057405F09001067405B6
:101CB200F09001077407F09001087406F090010992
:101CC2007404F090010A7406F090010B7404F09011
:101CD200010C7403F090010D7405F090010E740371
:101CE200F090010F7408F09001107407F090011148
:101CF2007406F09001127407F09001137403F090CF
:101D020001147405F09001157408F090011674071F
:101D1200F09001177407F09001187408F0900119FF
:101D22007406F090011A7407F090011B7408F09089
:101D3200011C7406F090011D7407F090011E7405D9
:101D4200F090011F7408F0020867E58290026CF0BF
:101D520090036B74E0F0A37400F0A3E4F09000A091
:101D620075F00012250DAA829002D0E4F090006472
:101D7200C00212230990026CE0FB90026BE0FC901F
:101D82000127F08B82C003C0041207F6D004D003EF
:101D92001BEBC454F024E0FBE43400FDEC142BF5FF
:101DA20082E43DF583E0FB1B8B8212084E9002D049
:101DB200E4F0900064122309D0028A8222E5829024
:101DC200026DF090026DE0FABA010890FFC27480D1
:101DD200F0801FBA020890FFC274C0F08014BA03E8
:101DE2000890FFC27490F08009BA040690FFC27492
:101DF200D0F09002D0E4F090000A022309E582902C
:101E02000271F0900271E0FA1AEAC454F024E0FA86
:101E1200E43400FB90026EE0142AFAE43BFB7C00FF
:101E2200BC0800502DEC2498FDE43400FE8A828B1D
:101E320083E0FF1FEFC40354F824A0FFE43400F84A
:101E4200EC2FF582E438F583E0FF8D828E83F00C6F
:101E520080CE90026FE0142498FAE43400FB8A04E6
:101E62008B05900270E0FE9003827405C39EF075AC
:101E72008202C002C003C004C005123241AE82D049
:101E820005D004D003D0028C828D83E02E8A828B0F
:101E920083F090FFC27440F09002D0E4F090000A08
:101EA2001223097A00BA08005021EA2498F582E444
:101EB2003400F583E090FFD2F09002D0E4F090007D
:101EC2000AC002122309D0020A80DA2290FFC274E9
:101ED20001F09002D0E4F090000A12230990FFC2B0
:101EE200743FF09002D0E4F090000A12230990FFB0
:101EF200C27406F09002D0E4F090000A1223099016
:101F0200FFC2740CF09002D0E4F090000A022309A0
:101F1200AAF0AB83E582900274F0A3EBF0A3EAF09F
:101F2200900277E4F0900278F0900279F090027AD1
:101F3200F090027BE4F090027CF090027DF090023F
:101F42007EF090027FE4F0900280F0900281F090A7
:101F52000282F0900283E4F0900284F0900285F015
:101F6200900286F0900287E4F0900288F09002746A
:101F7200E0FAA3E0FBA3E0FC7D00ED2AFEE43BFFD8
:101F82008C008E828F8388F01235CDFE600FED2497
:101F920078F582E43402F583EEF00D80DD90027371
:101FA200E0FABA01089002777401F0803ABA022C82
:101FB2008D037C007410C39BFBE49CFC9003937420
:101FC20002F0E4A3F08B828C83C0051234EFAB8263
:101FD200AC83D005900277EB04F0800BBA03089033
:101FE20002777410C39DF0900272E0FA900277E0DB
:101FF200900127F08A82C0051207F6D0058D027B78
:1020020000C3EB9A501BEB2478F582E43402F5838B
:10201200E0F582C002C00312084ED003D0020B804A
:10202200E022AAF0AB83E58290028CF0A3EBF0A34E
:10203200EAF090028F7401F0900290E4F090029125
:10204200F0900292F0900293F0900294E4F09002E9
:1020520095F0900296F0900297F0900298E4F0903A
:102062000299F090029AF090029BF090029CE4F0A8
:1020720090029DF090029EF090029FF09002A0E4E8
:10208200F09002A1F09002A2F09002A3F09002A4BC
:10209200E4F09002A5F09002A6F09002A7F0900260
:1020A200A8E4F09002A9F09002AAF09002ABF0909E
:1020B20002ACE4F09002ADF09002AEF09002AFF00C
:1020C2009002B0E4F09002B1F09002B2F09002B34C
:1020D200F09002B4E4F09002B5F09002B6F09002F3
:1020E200B7F09002B8E4F09002B9F09002BAF09022
:1020F20002BBF09002BCE4F09002BDF09002BEF090
:102102009002BFF09002C0E4F09002C1F090028C05
:10211200E0FAA3E0FBA3E0FC7D00ED2AFEE43BFF36
:102122008C008E828F8388F01235CDFE600FED24F5
:1021320090F582E43402F583EEF00D80DDED24901B
:10214200F582E43402F583EEF0900289E0F50B901B
:10215200028AE0FBA3E0FCEDFE14FF7800C3E89DD9
:10216200400302227D90028FE0F9E4B9010104F9F3
:10217200700302227D850B82C003C004C005C00625
:10218200C007C000C001121DBFD001D000D007D0CF
:1021920006D005D004D00375080074F02508403934
:1021A200E96036C007E5082490F582E43402F5833D
:1021B200E0FFF582C003C004C005C006C007C0002E
:1021C200C00112084ED001D000D007D006D005D0F1
:1021D20004D0030508D00780C19002D07401F08BAF
:1021E200828C83C003C004C005C006C007C00012B1
:1021F2002309D000D007D006D005D004D003900226
:1022020090E0F50AC00790028FE0FFE4BF010104ED
:10221200F508750901D007C3E5099E5028E5086055
:1022220024C007E509142490FFE43402F9E50924E7
:1022320090F582E43402F583E0FA8F828983F00517
:1022420009D00780D2EF2490F582E43402F583E5C9
:102252000AF0C003C004C005C006C007C0001224B3
:10226200F5AA82D000D007D006D005D004D00390C2
:10227200028FEAF0EA60040802215F90028FE0F523
:102282008222E5829002C4F09002C2E0FA9002C378
:10229200E0900127F08A821207F69002C4E0F582EC
:1022A20002084EE5829002C8F09002C6E0FA90025F
:1022B200C7E0FB9002C8E0FC9002C5E0FD90026E10
:1022C200EBF090026FECF0900270EDF08A82C002A7
:1022D200C003121DFFD003D002900127EBF08A82C7
:0922E2001207F675820002084E95
:01376900005F
:1022EB00758C00758A00758921758DFD758BFDD2F6
:1022FB008E7590009002CEE4F09002CDF022AA836E
:10230B00E5829002D1F0A3EAF09002CF7401F09035
:10231B0002CDE0FA60030223A79002D0E0FB607CC1
:10232B009002D1E0FBA3E0FC9003857441F0E4A3A1
:10233B00F08B828C83C003C004123275AD82AE83E6
:10234B00D004D0039002C9EDF0A3EEF090038E748D
:10235B0041F0E4A3F08B828C83123442AB82AC83CA
:10236B0090038CEBF0A3ECF09003E8123422AB82D9
:10237B00AC83E4FDFE74FFC39BFB74FF9CFCE49DEC
:10238B00FDE49EFE9002CBEBF0A3ECF0D28C90021E
:10239B00CD7401F09002CDE0603D80F8EA7038908A
:1023AB0002C97401F0A3E4F09002D1E0FAA3E0FBC0
:1023BB00E4FCFD74FFC39AFA74FF9BFBE49CFCE402
:1023CB009DFD9002CBEAF0A3EBF0D28C9002CEE015
:1023DB0060FA9002CEE4F022C0E0C082C083C0025B
:1023EB00C003C004C005C006C007C0D075D00075BF
:1023FB008C00758A00C28DC28C9002C9E0FAA3E0F2
:10240B00FBC374019AE49B5014EA24FFFCEB34FFEA
:10241B00FD9002C9ECF0A3EDF0D28C803EBA0132F4
:10242B00BB002F9002CBE0FCA3E0FD8C067F008E5F
:10243B008C8D8A9002C9E0FCA3E0FD1CBCFF011D42
:10244B009002C9ECF0A3EDF09002CE7401F0D28CA7
:10245B008009EA4B70059002CDE4F0D0D0D007D0C4
:10246B0006D005D004D003D002D083D082D0E03286
:10247B00E582900365F020990B900365E0F59910C8
:10248B00990280FB22E582900366F0900366E0FAE6
:10249B0075F00A842430F582C00212247BD00275B9
:1024AB00F00AEA84E5F02430F58212247B75820A67
:1024BB0002247BAA998A8222900399E0F58222E575
:1024CB008290036AF0900367E0FAA3E0FBA3E0FCC1
:1024DB00900362EAF0A3EBF0A3ECF090036AE0FA4E
:1024EB00600475985022759840223098111224BEC2
:1024FB00AA82900399EAF0BA2004758200227582B1
:10250B000122AAF0AB83E58290036EF0A3EBF0A35C
:10251B00EAF09003717401F0900362E0FAA3E0FB20
:10252B00A3E0FC8A828B838CF01235CDFD74012ADB
:10253B00FEE43BFF8C008E828F8388F01235CDFE3C
:10254B0074022AFFE43BF88C018F82888389F01296
:10255B0035CDFF74032AFAE43BFB8A828B838CF024
:10256B001235CDFA9002C5EEF09002C6EFF0900254
:10257B00C7EAF08D821222A5209803022FC01224E5
:10258B00BEAA82900399EAF0BA77028008BA570282
:10259B008003022836900362E0FBA3E0FCA3E0FD7E
:1025AB008B828C838DF01235CDFEFF78001FBFFF21
:1025BB000118C3E49F748088F063F08095F04003AA
:1025CB000226B874022BFFE43CF88D018F828883BE
:1025DB0089F01235CD780024FFF50CE834FFF50DAA
:1025EB0090036BE0F50EA3E0F50FA3E0F510AF0C35
:1025FB00E50DC454F0CFC4CF6FCF54F0CF6FF8EFCD
:10260B00250EF50EE8350FF50F74032BFFE43CF8A0
:10261B008D018F82888389F01235CD14250EFFE44E
:10262B00350FF8A9108F82888389F01235CDFF33CF
:10263B0095E0F8EF24FFF50EE834FFF50F90036EED
:10264B00E0F511A3E0F512A3E0F513AF0EE50FC40F
:10265B000354F8CFC403CF6FCF54F8CF6FF8EF25E7
:10266B0011FFE83512F8A913EE24FE2FF511E4380B
:10267B00F512891374012BFFE43CF88D018F8288CE
:10268B008389F01235CDFF9003827405C39FF075DB
:10269B008202123241AF828511828512838513F03B
:1026AB001235CDF8900371EF58F00227D2E4BE013A
:1026BB000104FE70030227B774022BFFE43CF88D74
:1026CB00018F82888389F01235CDFF24FE400302EF
:1026DB0027B77800EF24FEF511E834FFF5129003CD
:1026EB006BE0F50EA3E0F50FA3E0F510AF11E512CB
:1026FB00C454F0CFC4CF6FCF54F0CF6FF8EF250E8B
:10270B00F511E8350FF51285101374032BFFE43C1C
:10271B00F88D018F82888389F01235CD142511FF36
:10272B00E43512F8A9138F82888389F01235CDFF17
:10273B003395E0F8EF24FFF511E834FFF512900321
:10274B006EE0F50EA3E0F50FA3E0F510AF11E51267
:10275B00C40354F8CFC403CF6FCF54F8CF6FF8EF47
:10276B00250EFFE8350FF8A91074072FF511E43883
:10277B00F512891374012BFFE43CF88D018F8288CD
:10278B008389F01235CDFF9003827405C39FF075DA
:10279B008202123241AF828511828512838513F03A
:1027AB001235CDF8900371EF58F0801BEE60187462
:1027BB00022BFBE43CFC8B828C838DF01235CDFB22
:1027CB00BB010475820022900371E0FB6003022FB2
:1027DB00BB900362E0FBA3E0FCA3E0FD8B828C8348
:1027EB008DF01235CDFEBE0102800E1E8B828C83C6
:1027FB008DF0EE123409022FBB74022BFEE43CFF6A
:10280B008D008E828F8388F01235CDF9B9010302CA
:10281B002FBB8B828C838DF07408123409198E8236
:10282B008F8388F0E9123409022FBBBA7302800838
:10283B00BA53028003022A82900362E0FBA3E0FCFE
:10284B00A3E0FD8B828C838DF01235CDFEFF7800DB
:10285B001FBFFF0118C3EF9407E864809480400307
:10286B0002295974022BFFE43CF88D018F82888377
:10287B0089F01235CD780024FFF511E834FFF512FD
:10288B0090036BE0F50EA3E0F50FA3E0F510AF118D
:10289B00E512C454F0CFC4CF6FCF54F0CF6FF8EF25
:1028AB00250EF511E8350FF51285101374032BFF68
:1028BB00E43CF88D018F82888389F01235CD142585
:1028CB0011FFE43512F8A9138F82888389F0123532
:1028DB00CDFF3395E0F8EF24FFF511E834FFF51247
:1028EB0090036EE0F50EA3E0F50FA3E0F510AF112A
:1028FB00E512C40354F8CFC403CF6FCF54F8CF6F96
:10290B00F8EF250EFFE8350FF8A910EE2FF511E4BF
:10291B0038F512891374012BFEE43CFF8D008E8277
:10292B008F8388F01235CDFE9003827405C39EF021
:10293B00758202123241AE82851182851283851314
:10294B00F01235CDFF900371EE5FF0022A1E740278
:10295B002BFEE43CFF8D008E828F8388F01235CDE9
:10296B00FE90036BE0FFA3E0F8A3E0F9EEC454F094
:10297B002FF511E438F512891374032BFEE43CFF99
:10298B008D008E828F8388F01235CD142511FEE4D5
:10299B003512FFA8138E828F8388F01235CDFE334C
:1029AB0095E0FFEE24FFF511EF34FFF51290036E67
:1029BB00E0F50EA3E0F50FA3E0F510AF11E512C49F
:1029CB000354F8CFC403CF6FCF54F8CF6FFEEF256E
:1029DB000EFFEE350FFEA8100BBB00010C8B828C8B
:1029EB00838DF01235CDFB9003827405C39BF0757C
:1029FB008202C006C007C000123241AB82D000D0A9
:102A0B0007D0068F828E8388F01235CDFF9003712D
:102A1B00EB5FF0900371E0FB6003022FBB9003624E
:102A2B00E0FBA3E0FCA3E0FD8B828C838DF01235E1
:102A3B00CDFEBE0802800E0E8B828C838DF0EE12C3
:102A4B003409022FBB74022BFEE43CFF8D008E82F7
:102A5B008F8388F01235CDF9B90403022FBB8B821B
:102A6B008C838DF07401123409098E828F8388F068
:102A7B00E9123409022FBBBA64028008BA440280FF
:102A8B0003022D1F900362E0FBA3E0FCA3E0FD74A7
:102A9B00012BFEE43CFF8D008E828F8388F0123574
:102AAB00CDFEFF78000FBF000108C3EF9406E8646A
:102ABB008094804003022BA974022BFFE43CF88D19
:102ACB00018F82888389F01235CD780024FFF511B0
:102ADB00E834FFF51290036BE0F50EA3E0F50FA3BE
:102AEB00E0F510AF11E512C454F0CFC4CF6FCF5443
:102AFB00F0CF6FF8EF250EF511E8350FF5128510B5
:102B0B001374032BFFE43CF88D018F82888389F0CB
:102B1B001235CD142511FFE43512F8A9138F8288D5
:102B2B008389F01235CDFF3395E0F8EF24FFF511D3
:102B3B00E834FFF51290036EE0F50EA3E0F50FA35A
:102B4B00E0F510AF11E512C40354F8CFC403CF6FF7
:102B5B00CF54F8CF6FF8EF250EF511E8350FF512BE
:102B6B008510138B828C838DF01235CD142511F5C6
:102B7B0011E43512F512EE04900382D39405F4F0B0
:102B8B00758202123241AF828511828512838513C1
:102B9B00F01235CDF8900371EF58F0022CB4E4BE6F
:102BAB00050104FE7003022C9974032BFFE43CF81F
:102BBB008D018F82888389F01235CDF511C3941066
:102BCB004003022C9974022BF8E43CF98D078882A0
:102BDB0089838FF01235CD7F0024FFF50EEF34FF84
:102BEB00F50F90036BE0F514A3E0F515A3E0F516D4
:102BFB00AF0EE50FC454F0CFC4CF6FCF54F0CF6FEF
:102C0B00F8EF2514FFE83515F8A916E5112FFFE4A9
:102C1B0038F88F82888389F01235CDFF3395E0F831
:102C2B00EF24FFF514E834FFF51590036EE0F51172
:102C3B00A3E0F512A3E0F513AF14E515C40354F8A4
:102C4B00CFC403CF6FCF54F8CF6FF8EF2511F51426
:102C5B00E83512F5158513168B828C838DF01235A2
:102C6B00CD142514F514E43515F515900382740471
:102C7B00F0758202123241AF8285148285158385ED
:102C8B0016F01235CDF8900371EF58F0801BEE6003
:102C9B001874032BFBE43CFC8B828C838DF0123578
:102CAB00CDFBBB100475820022900371E0FB600327
:102CBB00022FBB900362E0FBA3E0FCA3E0FD7401D9
:102CCB002BFEE43CFF8D008E828F8388F01235CD76
:102CDB00F9B90502800E098E828F8388F0E91234D0
:102CEB0009022FBB74032BFBE43CFC8B828C838D82
:102CFB00F01235CDF9B91003022FBB8E828F83886A
:102D0B00F07401123409098B828C838DF0E9123433
:102D1B0009022FBBBA61028008BA41028003022F5D
:102D2B00BB900362E0FAA3E0FBA3E0FC74012AFD75
:102D3B00E43BFE8C078D828E838FF01235CDFD7FA9
:102D4B000024FEFEEF34FFFFC374FF9E747F8FF0F1
:102D5B0063F08095F04003022E4D74022AFEE43B93
:102D6B00FF8C008E828F8388F01235CD7F0024FF7D
:102D7B00F514EF34FFF51590036BE0F511A3E0F5B7
:102D8B0012A3E0F513AF14E515C454F0CFC4CF6F05
:102D9B00CF54F0CF6FFEEF2511F514EE3512F5156C
:102DAB0085131674032AF9E43BFE8C0789828E8304
:102DBB008FF01235CD142514FEE43515FFA8168EB1
:102DCB00828F8388F01235CDFE3395E0FFEE24FF22
:102DDB00F514EF34FFF51590036EE0F511A3E0F554
:102DEB0012A3E0F513AF14E515C40354F8CFC403D5
:102DFB00CF6FCF54F8CF6FFEEF2511FFEE3512FEDC
:102E0B00A8138A828B838CF01235CD142FFFE43EEE
:102E1B00FEED14900382D39405F4F0758202C00684
:102E2B00C007C000123241A982D000D007D0068F54
:102E3B00828E8388F01235CDFF900371E95FF0022B
:102E4B002F58E4BD010104FD7003022F3D74032ACA
:102E5B00FEE43BFF8C008E828F8388F01235CDFE13
:102E6B0024FE4003022F3D74022AFFE43BF88C0141
:102E7B008F82888389F01235CD780024FFF514E812
:102E8B0034FFF51590036BE0F511A3E0F512A3E009
:102E9B00F513AF14E515C454F0CFC4CF6FCF54F076
:102EAB00CF6FF8EF2511FFE83512F8A913EE24FECA
:102EBB002FFFE438F88F82888389F01235CDFF33EA
:102ECB0095E0FEEF24FFF514EE34FFF51590036E3D
:102EDB00E0F511A3E0F512A3E0F513AF14E515C46B
:102EEB000354F8CFC403CF6FCF54F8CF6FFEEF2549
:102EFB0011FFEE3512FEA8138A828B838CF01235EC
:102F0B00CD142FFFE43EFE900382E4F0758202C0E5
:102F1B0006C007C000123241A982D000D007D006EC
:102F2B008F828E8388F01235CDFF900371E95FF0AD
:102F3B00801BED601874032AFAE43BFB8A828B83B7
:102F4B008CF01235CDFABA01047582002290037110
:102F5B00E0FA705C900362E0FAA3E0FBA3E0FC7480
:102F6B00012AFDE43BFE8C078D828E838FF0123598
:102F7B00CDF8B80102800D188D828E838FF0E81288
:102F8B003409802C74032AFAE43BFB8A828B838CF2
:102F9B00F01235CDF8B8010280168D828E838FF03A
:102FAB007405123409188A828B838CF0E812340969
:092FBB00120867C2987582012218
:01376A00005E
:102FC400AA83E58290037BF0A3EAF090037BE0FA06
:102FD400A3E0FB900379E0FCA3E0FD90038CECF00C
:102FE400A3EDF08A828B83C002C003123422AC8228
:102FF400AD8390038574E8F0A37403F08C828D8311
:10300400123275AC82AD83D003D002E4FEFFF51713
:10301400F518F519F51AC3E5179CE5189DE5199EF1
:10302400E51A64808FF063F08095F0506690FFC4D9
:1030340074FFF09002D0E4F08A828B83C002C00354
:10304400C004C005C006C007122309D007D006D0AB
:1030540005D004D003D00290FFC4E4F09002D0F075
:103064008A828B83C002C003C004C005C006C007A7
:10307400122309D007D006D005D004D003D002050E
:1030840017E4B5170C0518B518070519B519870500
:103094001A808322AA83E58290037FF0A3EAF0904A
:1030A400037DE0FAA3E0FB900385EAF0A3EBF09044
:1030B40003E8123275AA82AB8390037FE0FCA3E09D
:1030C400FD900379EAF0A3EBF08C828D83C002C0FB
:1030D40003122FC4D003D0028A828B83C002C003A0
:1030E400123567AC82AD83AEF0FFC004C005C006E4
:1030F400C00790666675F0A6743F12330FAC82ADBC
:1031040083AEF0FFE58124FCF5818C828D838EF003
:10311400EF123573AC82AD839002D07401F08C82CF
:103124008D83122309D003D002900379EAF0A3EB34
:10313400F0900000022FC4E582900381F090038197
:10314400E0FABA014D7A007B00C3EA9410EB9400D4
:1031540050408A04EBCC25E0CC33FDEC242CF582E2
:10316400ED3405F583E0FCA3E0FDEA244CF582EBA5
:103174003405F583E090037DF0A3E4F08C828D8325
:10318400C002C003123098D003D0020ABA00BA0BAE
:1031940080B7900381E0FABA024D7A007B00C3EA5B
:1031A4009438EB940050408A04EBCC25E0CC33FDFA
:1031B400EC2484F582ED3404F583E0FCA3E0FDEA1D
:1031C40024F4F582EB3404F583E090037DF0A3E46A
:1031D400F08C828D83C002C003123098D003D002D9
:1031E4000ABA00BA0B80B7900381E0FABA034D7AA9
:1031F400007B00C3EA944EEB940050408A04EBCC6D
:1032040025E0CC33FDEC249AF582ED3403F583E01C
:10321400FCA3E0FDEA2436F582EB3404F583E09068
:10322400037DF0A3E4F08C828D83C002C0031230CE
:0D32340098D003D0020ABA00BA0B80B7226E
:10376B004D0A4D0A00004D0A00002D084D0A0000BD
:10377B00400C0000000000002006000000000000CC
:10378B002D080000000020060000000027050000A7
:10379B000000E0060000B80700004907E006000043
:1037AB0020064D0A400CC00D0000EA0A400C000038
:1037BB004D0A00002D082D09B807000000002D0848
:1037CB00000000002006000000002705000000009C
:1037DB00E0060000B80700004907E00600002006DD
:1037EB004D0A400CC00D0000EA0A400C00004D0AC7
:1037FB0000002D082D09B807000000000C0C0C0C64
:10380B000C0C0C0C0C0C0C0C0C0C0C0C0C0C0C0CED
:10381B000C0C0C0C0C0C0C0C0C0C0C0C0909090CE6
:10382B000C0C0C0C0C0C0C0C0C0C0C0C0C0C0C0CCD
:10383B000C0C0C0C0C0C0C0C0C0C0C0909090C0CC6
:10384B000C0C0C0C0C0C0C0C0C0C06010B02DC0005
:10385B00B801E900D2010000000006010B02DC00F8
:10386B00B801E900D20100000000AF005D01930038
:10387B0026019C00370100000000AF005D019300A2
:10388B0026019C00370100000000370115012601BD
:10389B00150137013701D000C40015010601720173
:1038AB005D01A500D201B8019F013701F700E900C6
:1038BB00DC00D0000000000000000C0C0C0C0C0C09
:1038CB0006030C0C0C0C0C0C06030C0C0C0C0C0C4B
:1038DB0006030C0C0C0C0C0C060612121206060638
:1038EB000606061212121212120A0A0A0A0A0A0310
:1038FB000303EE01EE010000EE014B024B02000050
:10390B004B02B801B8010000B801EE01EE01000056
:10391B0000000C0C0C0C0C0C0C0C0C0C0C0C0C0CF4
:02392B000C0C82
:10324100E582900383F09003847401F0900383E09E
:10325100FA900382E0FB7C00C3EC9B501090038446
:10326100E0FD9003848DF0EAA4F00C80EB900384E0
:10327100E0F58222AA83E582900387F0A3EAF09029
:103281000389E4F0A3F0900385E0FAA3E0FB7C104E
:10329100900387E0FDA3E0FE339200EECD25E0CD63
:1032A10033FE900387EDF0A3EEF0900389E0FDA3D8
:1032B100E0CD25E0CD33FE900389EDF0A3EEF030B3
:1032C1000012900389E0FDA3E0FE90038974014D93
:1032D100F0A3EEF0900389E0FDA3E0FEC3ED9AEECA
:1032E1009B401D900389EDC39AF0EE9BA3F09003E0
:1032F10087E0FDA3E0FE90038774014DF0A3EEF09B
:10330100DC8E900387E0FAA3E08A82F583221233F0
:10331100B2BC000302359FEF60FA30D502B2D1E5AD
:1033210083B4FF030235B5E582B4FF030235B52549
:103331008340072482400B02359F248314500302EB
:1033410035B5F582EA8DF0A4A8F0EA8EF0A428F84C
:10335100E435F0F9EB8DF0A428E935F0F9E433CA4E
:103361008FF0A429F9EA35F0FAEBF88EF0A429F9E7
:10337100EA35F0FAE433FBEC8DF0A429F9EA35F0F3
:10338100FAE43BFBE88FF0A42AFAEB35F0FBE433D7
:10339100CCFD8EF0A42AFAEB35F0FBE43CFCED8F7A
:1033A100F0A42BFBEC35F0FC20E7031233E00235EF
:1033B1007EAA82AB83A2F73392D16002D2F7F58263
:1033C100ACF0E58124F9F8E6FD08E6FE0886F00890
:0F33D100E6A2F73392D56002D2F7F583AFF02270
:06004200E478FFF6D8FD92
:1033E0007804EC700DC9CACBFCE58224F8F582D8CC
:1033F000F122782020E7111582C3E933F9EA33FA84
:09340000EB33FBEC33FCD8EC22A9
:1000200079C5E94401601B7A02903768789775A01A
:1000300003E493F2A308B8000205A0D9F4DAF2753C
:02004000A0FF1F
:1034090020F71030F6118883A88220F507F6A883E3
:1034190075830022F280F7F022AA83AB828BF090A9
:10342900038CE0A4F8A9F08AF0E0A429F98BF0A3B1
:10343900E0A429F58388822222AA83E58290039059
:10344900F0A3EAF0900392E4F0900390E0FAA3E08D
:10345900FB7C0090038EE0FDA3E0FE235401FF7086
:1034690037EECD25E0CD33FE90038EEDF0A3EEF0DF
:1034790090038EE0FDA3E0FEC3EA9DEB9E5011EEA2
:10348900C313CD13CDFE90038EEDF0A3EEF08008AB
:103499000C900392ECF080BB900392E0FA900390B9
:1034A900E0FBA3E0FC90038EE0FDA3E0FEC3EB9DEF
:1034B900EC9E400B900390EBC39DF0EC9EA3F09023
:1034C900038EE0FBA3E0C313CB13CBFC90038EEB7D
:1034D900F0A3ECF08A031AEB70C3900390E0FAA30F
:1034E900E08A82F58322AA83E582900395F0A3EA14
:1034F900F0900395E0FAA3E0FB30E709C3E49AFCF6
:10350900E49BFD80048A048B058C028D0390039350
:10351900E0FCA3E0FD33E433FE6009C3E49CFFE46F
:103529009DF880048C078D00900385EFF0A3E8F0E7
:103539008A828B83C006123275AA82AB83D0069029
:103549000395E0FCA3E0FD33E4336E600CC3E49A19
:0E355900FCE49BFD8C828D83228A828B832270
:100048007800E84400600A790075A000E4F309D854
:10005800FC7897E84403600C7904900000E4F0A36E
:04006800D8FCD9FAED
:10356700E4AC83AB82FAF9748E0235F27F8E1236A1
:1035770002F58385F08222B98003EA13B34010EA8B
:103587002401FAE43BFBE43CFC50047C800582BC4C
:10359700000EBB000BBA0008E4F5F0F583F58222B4
:1035A700A2D1E582138CF092F78B838A8222E4F50D
:1035B70083F58275F080F4A2D11322E4F583F582B6
:0635C70075F0C0747F22C4
:0D0013007581201235FCE582600302000EAD
:1035CD0020F71430F6148883A88220F507E6A88327
:1035DD0075830022E280F7E49322E022FCABF0AA8F
:1035ED0083A982749EC2D1F5821233E002357E75B5
:1035FD008200227F9E12366A30D10302359FC3EFBF
:10360D009582500974FFF5F0F583F5822279001249
:10361D00362789828A838BF0EC226040F825825010
:10362D000274FFF582E824F8501ECCCBCAF9E4CC25
:10363D0024F85014CBCAF9E4CB24F8500BCAF9E4A2
:10364D00CA24F8500379002224086010F8C3EC1343
:10365D00FCEB13FBEA13FAE913F9D8F122AA82ABBA
:0F366D0083A2F73392D16002D2F7F582ACF0223C
:00000001FF
