:0400000002001332B5
:03000B0002230DC0
:03006C0002000E81
:05000E001206C580FE92
:10006F0075A88275B8082212006F1222151206E2C7
:10007F0090008FE0FAA3E0FBA3E0FC900379EAF095
:10008F00A3EBF0A3ECF075820102270D90009274A0
:10009F0001F012083E9002747402F090027574021F
:1000AF00F090345375F080121E7B900092E0FA604E
:1000BF002090028B7403F090028C74FAF0E4A3F09A
:1000CF0090345D75F080121F8DE582900092F08064
:1000DF00D9021E379002747401F09002757402F009
:1000EF0090347975F080121E7B9002747402F09038
:1000FF0002757401F090348475F080121E7B9002AB
:10010F00747403F09002757402F090349575F0805A
:10011F00121E7B9002D27401F0900DAC122233129A
:10012F001E379002747401F09002757402F09034CF
:10013F009E75F080121E7B9002747402F09002750F
:10014F007401F09034AA75F080121E7B90027474C3
:10015F0003F09002757401F09034BA75F080121E9E
:10016F007B9002747404F09002757401F09034CB9C
:10017F0075F080121E7B9002D27401F0900DAC12BC
:10018F002233021E379000937401F09002747402B0
:10019F00F09002757402F09034DA75F080121E7BC5
:1001AF009002747403F09002757402F09034E0754D
:1001BF00F080121E7B9002D27401F0900BB81222C5
:1001CF0033121E3790008FE0FAA3E0FBA3E0FC8A06
:1001DF00828B838CF074071232D590008FE0FAA3D4
:1001EF00E0FBA3E0FC0ABA00010B8A828B838CF040
:1001FF0074031232D590008FE0FAA3E0FBA3E0FC6A
:10020F0074022AFAE43BFB8A828B838CF07404120B
:10021F0032D590008FE0FAA3E0FBA3E0FC74032A31
:10022F00FAE43BFB8A828B838CF0740A1232D5126C
:10023F0007D5900093E0FA604890008FE0FAA3E0B2
:10024F00FBA3E0FC74022AFAE43BFB8A828B838CCB
:10025F00F0123433FA90008FE0FBA3E0FCA3E0FD33
:10026F0074032BFBE43CFC8B828C838DF0123433B4
:10027F0090026DF08A82121CBAE582900093F08092
:10028F00B1021E379000947401F09002747402F062
:10029F009002757402F09034DA75F080121E7B9024
:1002AF0002747403F09002757402F09034E275F0EA
:1002BF0080121E7B9002D27401F0900BB812223381
:1002CF00121E37120C5890008FE0FAA3E0FBA3E048
:1002DF00FC8A828B838CF074071232D590008FE0EA
:1002EF00FAA3E0FBA3E0FC0ABA00010B8A828B831E
:1002FF008CF074021232D590008FE0FAA3E0FBA3CA
:10030F00E0FC74022AFAE43BFB8A828B838CF07444
:10031F00041232D590008FE0FAA3E0FBA3E0FC7447
:10032F00032AFAE43BFB8A828B838CF0740212322D
:10033F00D5900094E0FA604890008FE0FAA3E0FBBC
:10034F00A3E0FC74022AFAE43BFB8A828B838CF0D5
:10035F00123433FA90008FE0FBA3E0FCA3E0FD74AE
:10036F00032BFBE43CFC8B828C838DF01234339097
:10037F00026DF08A82121CBAE582900094F080B16F
:10038F00021E379000957401F09002747402F09081
:10039F0002757402F09034DA75F080121E7B9002B1
:1003AF00747403F09002757402F09034E475F08069
:1003BF00121E7B9002D27401F0900BB812223312EE
:1003CF001E3712107090008FE0FAA3E0FBA3E0FC41
:1003DF008A828B838CF074051232D590008FE0FAED
:1003EF00A3E0FBA3E0FC0ABA00010B8A828B838C8B
:1003FF00F074051232D590008FE0FAA3E0FBA3E072
:10040F00FC74022AFAE43BFB8A828B838CF074041F
:10041F001232D590008FE0FAA3E0FBA3E0FC740347
:10042F002AFAE43BFB8A828B838CF0740A1232D552
:10043F00900095E0FA604890008FE0FAA3E0FBA3EC
:10044F00E0FC74022AFAE43BFB8A828B838CF01265
:10045F003433FA90008FE0FBA3E0FCA3E0FD7403BC
:10046F002BFBE43CFC8B828C838DF0123433900297
:10047F006DF08A82121CBAE582900095F080B1026D
:10048F001E379000967401F09002747402F090027F
:10049F00757402F09034DA75F080121E7B9002743E
:1004AF007403F09002757402F09034E675F08012C8
:1004BF001E7B9002D27401F0900BB8122233121EE1
:1004CF003712148890008FE0FAA3E0FBA3E0FC8AB8
:1004DF00828B838CF074031232D590008FE0FAA3D5
:1004EF00E0FBA3E0FC0ABA00010B8A828B838CF03D
:1004FF0074041232D590008FE0FAA3E0FBA3E0FC66
:10050F0074022AFAE43BFB8A828B838CF074041208
:10051F0032D590008FE0FAA3E0FBA3E0FC74032A2E
:10052F00FAE43BFB8A828B838CF074101232D590E5
:10053F000096E0FA604890008FE0FAA3E0FBA3E09A
:10054F00FC74022AFAE43BFB8A828B838CF0123410
:10055F0033FA90008FE0FBA3E0FCA3E0FD74032BC4
:10056F00FBE43CFC8B828C838DF012343390026D54
:10057F00F08A82121CBAE582900096F080B1021EBA
:10058F00379000977401F09002747402F090027526
:10059F007402F09034DA75F080121E7B900274743E
:1005AF0003F09002757402F09034E875F080121E1B
:1005BF007B9002D27401F0900BB8122233121E37C7
:1005CF001218A190008FE0FAA3E0FBA3E0FC8A824F
:1005DF008B838CF074071232D590008FE0FAA3E072
:1005EF00FBA3E0FC0ABA00010B8A828B838CF074A8
:1005FF00051232D590008FE0FAA3E0FBA3E0FC7464
:10060F00022AFAE43BFB8A828B838CF07404123249
:10061F00D590008FE0FAA3E0FBA3E0FC74032AFA65
:10062F00E43BFB8A828B838CF074011232D59000ED
:10063F0097E0FA604890008FE0FAA3E0FBA3E0FC9C
:10064F0074022AFAE43BFB8A828B838CF0123433D8
:10065F00FA90008FE0FBA3E0FCA3E0FD74032BFBFB
:10066F00E43CFC8B828C838DF012343390026DF05E
:10067F008A82121CBAE582900097F080B1021E3771
:10068F009002747402F09002757402F09034EA755F
:10069F00F080121E7B9002747403F0900275740246
:1006AF00F09034EF75F080121E7B9002D27401F03F
:1006BF00900BB802223312007612009B1200E31245
:1006CF0001941202931203921204911205901206D2
:0306DF008F80E623
:103453004D415A452047414D4500206170657274C6
:10346300652045535041434F207061726120696E5E
:10347300696369617200494E53545255434F455332
:10348300003129204D6F76696D656E746520636F19
:103493006D00572C532C412C442000434F4D4F209B
:1034A30047414E484152004163686520756D612074
:1034B30073616964612000706172612043494D4109
:1034C3002C44495245492D005441206F75204553E2
:1034D300515545524441004E4956454C0031003246
:1034E30000330034003500564F43450056454E43E4
:1034F30045550000630063000000630000007D0089
:10350300630000005400000000000000A70000005A
:10351300000000007D0000000000A7000000000084
:10352300C7000000000095000000850000008D002A
:1035330095000000A700630054004B0000005E00EC
:1035430054000000630000007D007000850000004F
:1035530000007D0000000000A70000000000C7007D
:103563000000000095000000850000008D0095001C
:103573000000A700630054004B0000005E005400ED
:103583000000630000007D00700085000000000063
:103593000F0F0F0F0F0F0F0F0F0F0F0F0F0F0F0F38
:1035A3000F0F0F0F0F0F0F0F0F0F0F0F0F0F0F0F28
:1035B3000C0C0C0F0F0F0F0F0F0F0F0F0F0F0F0F21
:1035C3000F0F0F0F0F0F0F0F0F0F0F0F0F0F0F0C0B
:1035D3000C0C0F0F0F0F0F0F0F0F0F0F0F0FFB0021
:1035E3007D002A0195001A018D0000000000FB00F8
:1035F3007D002A0195001A018D000000000078016A
:10360300BC00BF01DF00A601D30000000000780169
:10361300BC00BF01DF00A601D30000000000D300FF
:10362300ED00DF00ED00D300D3003C014F01ED00BE
:10363300FB00B100BC008E018D0095009E00D300FD
:103643000A011A012A013C010000000000000C0CD1
:103653000C0C0C0C06030C0C0C0C0C0C06030C0CC5
:103663000C0C0C0C06030C0C0C0C0C0C06061212A6
:10367300120606060606061212121212120A0A0A87
:103683000A0A0A0303038500850000008500700011
:103693007000000070009500950000009500850003
:1036A3008500000000000606060606060606060656
:1036B300060606060606FB000000060CED000000E9
:0236C300060CF3
:1006E20090FFC27401F09002D2E4F090000A12224C
:1006F2003390FFC2743FF09002D2E4F090000A12ED
:10070200223390FFC27406F09002D2E4F090000A05
:1007120012223390FFC2740CF09002D2E4F09000E7
:100722000A022233E582900128F0900128E0FABA09
:10073200010E900127E0FB90FFC2747F2BF0803105
:10074200BA020E900127E0FB90FFC274BF2BF0802B
:1007520020BA030E900127E0FB90FFC2748F2BF0AA
:10076200800FBA040C900127E0FA90FFC274CF2ADE
:10077200F09002D2E4F090000A022233E582900166
:1007820029F0900129E090FFD2F09002D2E4F0909B
:10079200000A022233E58290012BF090012BE0FA4D
:1007A20090012AE0FB900127F08A82C002C0031266
:1007B2000726D003D0021AEAC454F024E0FAE43443
:1007C20000FCEB142AF582E43CF583E0FA1A8A82F3
:1007D20002077E7A00BA0400506190012CE4F0EA2C
:1007E20004FBEAC454F0FC90012CE0FDBD10005063
:1007F20047ED04FE900127F08B82C002C003C004C3
:10080200C005C006120726D006D005D004EC24E0AD
:10081200FFE43400F8ED2FF582E438F583E0FD1DA6
:100822008D82C004C00612077ED006D004D003D049
:100832000290012CEEF080AF0A809A2290012DE402
:10084200F090012EF090012FF0900130F0900131E4
:10085200E4F0900132F0900133F0900134F0900115
:1008620035741FF09001367410F0900137741FF048
:100872009001387410F09001397413F090013A74B9
:1008820012F090013B7412F090013C7412F090014E
:100892003D741FF090013EE4F090013F740EF09021
:1008A20001407404F0900141741EF09001427404FE
:1008B200F09001437404F09001447404F0900145F7
:1008C200741FF09001467401F0900147740DF0908E
:1008D20001487409F09001497418F090014A7409B2
:1008E200F090014B7419F090014C7409F090014D95
:1008F2007417F090014E7410F090014F7415F0903F
:100902000150741CF09001517404F0900152740C67
:10091200F09001537405F09001547405F090015564
:100922007412F09001567410F09001577412F09006
:1009320001587402F09001597412F090015A741225
:10094200F090015B7412F090015C7412F090015D02
:100952007416F090015E7416F090015F7413F090BB
:1009620001607416F09001617414F09001627417C2
:10097200F09001637410F0900164741FF0900165AF
:100982007415F09001667415F09001677411F0907F
:1009920001687404F09001697415F090016A74158D
:1009A200F090016B7414F090016C741FF07A00BA2D
:1009B20008004003020A7EEA24A0FBE43400FCEAB9
:1009C200242DF582E43401F583E08B828C83F0EAF6
:1009D20024A8FBE43400FCEA2435F582E43401F572
:1009E20083E08B828C83F0EA24B0FBE43400FCEADF
:1009F200243DF582E43401F583E08B828C83F0EAB6
:100A020024B8FBE43400FCEA2445F582E43401F521
:100A120083E08B828C83F0EA24C0FBE43400FCEA9E
:100A2200244DF582E43401F583E08B828C83F0EA75
:100A320024C8FBE43400FCEA2455F582E43401F5D1
:100A420083E08B828C83F0EA24D0FBE43400FCEA5E
:100A5200245DF582E43401F583E08B828C83F0EA35
:100A620024D8FBE43400FCEA2465F582E43401F581
:100A720083E0FD8B828C83F00A0209B190FFC2747D
:100A820040F09002D2E4F090000A1222337A00BAC7
:100A92000800503FEAC40354F8FB7C00BC08005035
:100AA2002FEB24A0FDE43400FEEC2DF582E43EF5AC
:100AB20083E090FFD2F09002D2E4F090000AC002EC
:100AC200C003C004122233D004D003D0020C80CC65
:100AD2000A80BC9000E07402F09000E17403F09090
:100AE20000E27403F09000E37403F09000E47404F5
:100AF200F09000E57404F09000E67405F09000E7D1
:100B02007402F09000E87404F09000E97405F0902B
:100B120000EA7403F09000EB7403F09000EC7403AD
:100B2200F09000ED7403F09000EE7404F09000EF8A
:100B32007404F09000F07406F09000F17402F090EA
:100B420000F27404F09000F37402F09000F4740365
:100B5200F09000F57405F09000F67406F09000F73E
:100B62007402F09000F87403F09000F97406F090AB
:100B720000FA7404F09000FB7403F09000FC74031C
:100B8200F09000FD7406F09000FE7403F09000FFF8
:100B92007404F09001007402F09001017405F09069
:100BA20001027407F09001037406F09001047406C8
:100BB200F09001057403F09001067405F0900107AE
:100BC2007403F09001087405F09001097405F09027
:100BD200010A7403F090010B7405F090010C740289
:100BE200F090010D7405F090010E7403F090010F66
:100BF2007402F09001107407F09001117408F090E3
:100C020001127408F09001137408F0900114740832
:100C1200F09001157408F09001167408F090011715
:100C22007408F09001187407F09001197402F090A2
:100C3200011A7408F090011B7408F090011C7408EA
:100C4200F090011D7408F090011E7407F090011FCE
:100C52007407F00207D590016DE4F090016EF090F8
:100C6200016FF0900170F0900171E4F0900172F068
:100C7200900173F0900174F0900175741BF0900173
:100C8200767410F09001777417F09001787410F078
:100C92009001797413F090017A7414F090017B74CE
:100CA20002F090017C7411F090017D741FF09001AC
:100CB2007EE4F090017F7417F09001807412F0903E
:100CC20001817402F0900182740BF0900183740828
:100CD200F09001847405F0900185741FF0900186F4
:100CE2007401F09001877415F09001887405F090FA
:100CF20001897404F090018A741DF090018BE4F074
:100D020090018C7413F090018D741DF090018E741B
:100D120015F090018F7411F09001907415F090010C
:100D2200917415F09001927414F09001937412F082
:100D32009001947419F0900195741CF090019674CE
:100D42001DF09001977401F09001987403F09001E6
:100D5200997417F090019A7403F090019B741BF040
:100D620090019C741AF090019D741DF090019E7484
:100D720011F090019F7413F09001A07417F090018C
:100D8200A17414F09001A27415F09001A37410F0F4
:100D92009001A4741FF09001A57406F09001A6744E
:100DA2000FF09001A7740FF09001A8E4F09001A950
:100DB2007403F09001AA7403F09001AB7403F090F5
:100DC20001AC741FF07A00BA08004003020E96EAE2
:100DD20024A0FBE43400FCEA246DF582E43401F53E
:100DE20083E08B828C83F0EA24A8FBE43400FCEAE3
:100DF2002475F582E43401F583E08B828C83F0EA7A
:100E020024B0FBE43400FCEA247DF582E43401F5ED
:100E120083E08B828C83F0EA24B8FBE43400FCEAA2
:100E22002485F582E43401F583E08B828C83F0EA39
:100E320024C0FBE43400FCEA248DF582E43401F59D
:100E420083E08B828C83F0EA24C8FBE43400FCEA62
:100E52002495F582E43401F583E08B828C83F0EAF9
:100E620024D0FBE43400FCEA249DF582E43401F54D
:100E720083E08B828C83F0EA24D8FBE43400FCEA22
:100E820024A5F582E43401F583E0FD8B828C83F0A6
:100E92000A020DC990FFC27440F09002D2E4F090B1
:100EA200000A1222337A00BA0800503FEAC40354FF
:100EB200F8FB7C00BC0800502FEB24A0FDE43400BA
:100EC200FEEC2DF582E43EF583E090FFD2F0900235
:100ED200D2E4F090000AC002C003C004122233D050
:100EE20004D003D0020C80CC0A80BC9000E07402D3
:100EF200F09000E17403F09000E27404F09000E3DB
:100F02007403F09000E47403F09000E57403F09031
:100F120000E67405F09000E77404F09000E87404B1
:100F2200F09000E97404F09000EA7402F09000EB93
:100F32007403F09000EC7404F09000ED7403F090F0
:100F420000EE7403F09000EF7404F09000F074056A
:100F5200F09000F17406F09000F27408F09000F343
:100F62007402F09000F47405F09000F57405F090AE
:100F720000F67406F09000F77408F09000F8740818
:100F8200F09000F97402F09000FA7406F09000FB01
:100F92007405F09000FC7403F09000FD7406F0906C
:100FA20000FE7404F09000FF7405F09001007405D7
:100FB200F09001017403F09001027404F0900103B7
:100FC2007408F09001047404F09001057403F09029
:100FD20001067402F09001077403F0900108740690
:100FE200F09001097405F090010A7406F090010B6B
:100FF2007403F090010C7404F090010D7402F090EF
:10100200010E7406F090010F7408F090011074073D
:10101200F09001117402F09001127408F090011323
:101022007408F09001147404F09001157406F090A5
:1010320001167407F09001177407F09001187408F4
:10104200F09001197407F090011A7404F090011BDA
:101052007407F090011C7408F090011D7408F09060
:10106200011E7407F090011F7404F00207D590016D
:10107200ADE4F09001AEF09001AFF09001B0F090CD
:1010820001B1E4F09001B2F09001B3F09001B4F03C
:101092009001B5741BF09001B6741BF09001B77407
:1010A20018F09001B87419F09001B9741AF0900117
:1010B200BA7411F09001BB741AF09001BC7419F06B
:1010C2009001BD741FF09001BE7408F09001BF74CE
:1010D2000AF09001C0740AF09001C1740AF0900104
:1010E200C2740AF09001C37402F09001C4741FF03C
:1010F2009001C5741BF09001C67411F09001C77481
:1011020015F09001C87405F09001C97414F09001B3
:10111200CA7415F09001CB7411F09001CC741BF0DD
:101122009001CD7419F09001CE7413F09001CF7438
:1011320017F09001D07410F09001D17403F0900177
:10114200D2741BF09001D37419F09001D47413F08F
:101152009001D57412F09001D6741BF09001D774EF
:101162001AF09001D87409F09001D9E4F09001DAF4
:101172007411F09001DB7411F09001DC741BF0909B
:1011820001DD7412F09001DE7417F09001DF74102B
:10119200F09001E07412F09001E17415F09001E218
:1011A2007414F09001E37413F09001E4741FF09052
:1011B20001E5741BF09001E67411F09001E77415DB
:1011C200F09001E8E4F09001E97415F09001EAE48E
:1011D200F09001EB7415F09001EC741BF07A00BAF8
:1011E200080040030212AEEA24A0FBE43400FCEA49
:1011F20024ADF582E43401F583E08B828C83F0EA3E
:1012020024A8FBE43400FCEA24B5F582E43401F5B9
:1012120083E08B828C83F0EA24B0FBE43400FCEAA6
:1012220024BDF582E43401F583E08B828C83F0EAFD
:1012320024B8FBE43400FCEA24C5F582E43401F569
:1012420083E08B828C83F0EA24C0FBE43400FCEA66
:1012520024CDF582E43401F583E08B828C83F0EABD
:1012620024C8FBE43400FCEA24D5F582E43401F519
:1012720083E08B828C83F0EA24D0FBE43400FCEA26
:1012820024DDF582E43401F583E08B828C83F0EA7D
:1012920024D8FBE43400FCEA24E5F582E43401F5C9
:1012A20083E0FD8B828C83F00A0211E190FFC2740D
:1012B20040F09002D2E4F090000A1222337A00BA8F
:1012C2000800503FEAC40354F8FB7C00BC080050FD
:1012D2002FEB24A0FDE43400FEEC2DF582E43EF574
:1012E20083E090FFD2F09002D2E4F090000AC002B4
:1012F200C003C004122233D004D003D0020C80CC2D
:101302000A80BC9000E07402F09000E17403F09057
:1013120000E27407F09000E37402F09000E47404B9
:10132200F09000E57403F09000E67403F09000E79B
:101332007406F09000E87408F09000E97408F090E8
:1013420000EA7402F09000EB7408F09000EC740272
:10135200F09000ED7404F09000EE7408F09000EF4D
:101362007408F09000F07403F09000F17404F090AF
:1013720000F27405F09000F37402F09000F474052A
:10138200F09000F57404F09000F67406F09000F707
:101392007402F09000F87405F09000F97406F09071
:1013A20000FA7404F09000FB7406F09000FC7403E1
:1013B200F09000FD7406F09000FE7407F09000FFBC
:1013C2007404F09001007403F09001017406F0902F
:1013D20001027402F09001037404F0900104740697
:1013E200F09001057405F09001067402F090010777
:1013F2007404F09001087405F09001097405F090EE
:10140200010A7406F090010B7404F090010C74024E
:10141200F090010D7405F090010E7403F090010F2D
:101422007407F09001107407F09001117408F090A5
:1014320001127404F09001137403F0900114740704
:10144200F09001157408F09001167408F0900117DD
:101452007403F09001187406F09001197403F0906F
:10146200011A7407F090011B7408F090011C7406B5
:10147200F090011D7407F090011E7402F090011F9C
:101482007407F00207D59001EDE4F09001EEF090C0
:1014920001EFF09001F0F09001F1E4F09001F2F030
:1014A2009001F3F09001F4F09001F5741FF09001B7
:1014B200F67419F09001F77415F09001F87411F0B8
:1014C2009001F97414F09001FA7415F09001FB7414
:1014D20012F09001FC741AF09001FD741FF090015B
:1014E200FE7401F09001FF7405F09002007408F0A0
:1014F2009002017411F09002027405F090020374DC
:1015020009F09002047412F0900205741BF090022C
:10151200067411F0900207E4F0900208741BF09038
:1015220002097411F090020AE4F090020B7411F0B7
:1015320090020C741BF090020D7412F090020E7463
:101542000AF090020F7409F09002107404F09002F5
:10155200117419F09002127403F09002137419F0CE
:10156200900214740BF09002157412F0900216742B
:1015720016F09002177413F09002187418F090028B
:10158200197412F090021A7416F090021B7413F080
:1015920090021C741BF090021D741AF090021E74CB
:1015A20011F090021F7415F09002207414F0900252
:1015B200217412F09002227415F09002237410F03C
:1015C200900224741FF09002257413F09002267486
:1015D20005F09002277409F09002287409F0900235
:1015E200297405F090022A7415F090022B7401F010
:1015F20090022C741FF07A00BA080040030216C74A
:10160200EA24A0FBE43400FCEA24EDF582E4340190
:10161200F583E08B828C83F0EA24A8FBE43400FC9F
:10162200EA24F5F582E43401F583E08B828C83F0C1
:10163200EA24B0FBE43400FCEA24FDF582E4340140
:10164200F583E08B828C83F0EA24B8FBE43400FC5F
:10165200EA2405F582E43402F583E08B828C83F080
:10166200EA24C0FBE43400FCEA240DF582E43402EF
:10167200F583E08B828C83F0EA24C8FBE43400FC1F
:10168200EA2415F582E43402F583E08B828C83F040
:10169200EA24D0FBE43400FCEA241DF582E434029F
:1016A200F583E08B828C83F0EA24D8FBE43400FCDF
:1016B200EA2425F582E43402F583E0FD8B828C83F3
:1016C200F00A0215FA90FFC27440F09002D2E4F0E0
:1016D20090000A1222337A00BA0800503FEAC4038B
:1016E20054F8FB7C00BC0800502FEB24A0FDE4342E
:1016F20000FEEC2DF582E43EF583E090FFD2F090FF
:1017020002D2E4F090000AC002C003C004122233E5
:10171200D004D003D0020C80CC0A80BC9000E074CC
:1017220002F09000E17408F09000E27403F090007F
:10173200E37402F09000E47403F09000E57403F0A7
:101742009000E67402F09000E77407F09000E874ED
:1017520007F09000E97402F09000EA7407F090003C
:10176200EB7408F09000EC7408F09000ED7404F053
:101772009000EE7408F09000EF7402F09000F074A4
:1017820006F09000F17405F09000F27406F09000FB
:10179200F37404F09000F47405F09000F57404F012
:1017A2009000F67404F09000F77404F09000F8745E
:1017B20003F09000F97406F09000FA7404F09000BF
:1017C200FB7406F09000FC7405F09000FD7403F0C9
:1017D2009000FE7404F09000FF7407F09001007412
:1017E20006F09001017404F09001027405F090017A
:1017F200037406F09001047404F09001057405F07E
:101802009001067405F09001077407F090010874C6
:1018120006F09001097404F090010A7406F0900138
:101822000B7404F090010C7403F090010D7405F038
:1018320090010E7403F090010F7408F0900110747F
:1018420007F09001117406F09001127407F09001F4
:10185200137403F09001147405F09001157408F0EC
:101862009001167407F09001177407F09001187434
:1018720008F09001197406F090011A7407F09001B3
:101882001B7408F090011C7406F090011D7407F09F
:1018920090011E7405F090011F7408F00207D590A4
:1018A200022DE4F090022EF090022FF0900230F020
:1018B200900231E4F0900232F0900233F090023460
:1018C200F0900235741FF09002367419F0900237CE
:1018D2007415F09002387411F09002397414F0907B
:1018E200023A7415F090023B7412F090023C741AA2
:1018F200F090023D741FF090023E7401F090023F9E
:101902007405F09002407408F09002417411F09056
:1019120002427405F09002437409F090024474127A
:10192200F0900245741BF09002467411F090024749
:10193200E4F0900248741BF09002497411F0900296
:101942004AE4F090024B7411F090024C741BF09038
:10195200024D7412F090024E740AF090024F740914
:10196200F09002507404F09002517419F0900252F7
:101972007403F09002537419F0900254740BF090B7
:1019820002557412F09002567416F09002577413B6
:10199200F09002587418F09002597412F090025AA2
:1019A2007416F090025B7413F090025C741BF0905A
:1019B200025D741AF090025E7411F090025F741569
:1019C200F09002607414F09002617412F09002625E
:1019D2007415F09002637410F09002647417F09022
:1019E20002657413F09002667405F0900267740940
:1019F200F09002687409F09002697405F090026A2E
:101A02007415F090026B7401F090026C741FF07AFE
:101A120000BA08004003021AE0EA24A0FBE4340002
:101A2200FCEA242DF582E43402F583E08B828C8378
:101A3200F0EA24A8FBE43400FCEA2435F582E4341D
:101A420002F583E08B828C83F0EA24B0FBE434005D
:101A5200FCEA243DF582E43402F583E08B828C8338
:101A6200F0EA24B8FBE43400FCEA2445F582E434CD
:101A720002F583E08B828C83F0EA24C0FBE434001D
:101A8200FCEA244DF582E43402F583E08B828C83F8
:101A9200F0EA24C8FBE43400FCEA2455F582E4347D
:101AA20002F583E08B828C83F0EA24D0FBE43400DD
:101AB200FCEA245DF582E43402F583E08B828C83B8
:101AC200F0EA24D8FBE43400FCEA2465F582E4342D
:101AD20002F583E0FD8B828C83F00A021A1390FFD9
:101AE200C27440F09002D2E4F090000A1222337ADB
:101AF20000BA0800503FEAC40354F8FB7C00BC085B
:101B020000502FEB24A0FDE43400FEEC2DF582E41E
:101B12003EF583E090FFD2F09002D2E4F090000A0A
:101B2200C002C003C004122233D004D003D0020C7E
:101B320080CC0A80BC9000E07402F09000E1740353
:101B4200F09000E27403F09000E37402F09000E47D
:101B52007403F09000E57403F09000E67402F090D4
:101B620000E77407F09000E87407F09000E974024F
:101B7200F09000EA7407F09000EB7408F09000EC2B
:101B82007408F09000ED7404F09000EE7408F09088
:101B920000EF7402F09000F07406F09000F174050A
:101BA200F09000F27406F09000F37404F09000F4E8
:101BB2007405F09000F57404F09000F67404F0904F
:101BC20000F77404F09000F87403F09000F97406C2
:101BD200F09000FA7404F09000FB7406F09000FCA0
:101BE2007405F09000FD7403F09000FE7404F09010
:101BF20000FF7407F09001007406F0900101740474
:101C0200F09001027405F09001037406F090010453
:101C12007404F09001057405F09001067405F090CB
:101C220001077407F09001087406F090010974042A
:101C3200F090010A7406F090010B7404F090010C0C
:101C42007403F090010D7405F090010E7403F0908E
:101C5200010F7408F09001107407F09001117406DE
:101C6200F09001127407F09001137403F0900114C4
:101C72007405F09001157408F09001167407F09045
:101C820001177407F09001187408F0900119740696
:101C9200F090011A7407F090011B7408F090011C77
:101CA2007406F090011D7407F090011E7405F09007
:101CB200011F7408F00207D5E58290026EF09003CE
:101CC2007D74E0F0A37400F0A3E4F09000A075F03E
:101CD20000122750AA82758203C0021224BA90020F
:101CE2006EE0FB90026DE0FC900127F08B82C00356
:101CF200C004120726D004D0031BEBC454F024E026
:101D0200FBE43400FDEC142BF582E43DF583E0FBAB
:101D12001B8B8212077E9002D2E4F09000641222A2
:101D220033D0028A8222E58290026FF090026FE045
:101D3200FABA010890FFC27480F0801FBA020890BC
:101D4200FFC274C0F08014BA030890FFC27490F00E
:101D52008009BA040690FFC274D0F09002D2E4F077
:101D620090000A022233E582900273F0900273E03F
:101D7200FA1AEAC454F024E0FAE43400FB90027048
:101D8200E0142AFAE43BFB7C00BC0800502DEC2452
:101D920098FDE43400FE8A828B83E0FF1FEFC403C8
:101DA20054F824A0FFE43400F8EC2FF582E438F56F
:101DB20083E0FF8D828E83F00C80CE900271E0145E
:101DC2002498FAE43400FB8A048B05900272E0FE48
:101DD2009003847405C39EF0758202C002C003C0E2
:101DE20004C005123207AE82D005D004D003D0025F
:101DF2008C828D83E02E8A828B83F090FFC27440A6
:101E0200F09002D2E4F090000A1222337A00BA086B
:101E1200005021EA2498F582E43400F583E090FF33
:101E2200D2F09002D2E4F090000AC002122233D023
:101E3200020A80DA2290FFC27401F09002D2E4F02A
:101E420090000A12223390FFC2743FF09002D2E453
:101E5200F090000A12223390FFC27406F09002D270
:101E6200E4F090000A12223390FFC2740CF0900248
:101E7200D2E4F090000A022233AAF0AB83E582900A
:101E82000276F0A3EBF0A3EAF0900279E4F090027C
:101E92007AF090027BF090027CF090027DE4F09068
:101EA200027EF090027FF0900280F0900281E4F0D6
:101EB200900282F0900283F0900284F0900285E416
:101EC200F0900286F0900287F0900288F0900289EA
:101ED200E4F090028AF0900276E0FAA3E0FBA3E03D
:101EE200FC7D00ED2AFEE43BFF8C008E828F83880E
:101EF200F0123433FE600FED247AF582E43402F5F9
:101F020083EEF00D80DD900275E0FABA01089002CE
:101F1200797401F0803ABA022C8D037C007410C3EC
:101F22009BFBE49CFC9003957402F0E4A3F08B828B
:101F32008C83C0051233BBAB82AC83D0059002798F
:101F4200EB04F0800BBA03089002797410C39DF081
:101F5200900274E0FA900279E0900127F08A82C040
:101F620005120726D0058D027B00C3EB9A501BEBAE
:101F7200247AF582E43402F583E0F582C002C003DC
:101F820012077ED003D0020B80E022AAF0AB83E5D9
:101F92008290028EF0A3EBF0A3EAF090029174011A
:101FA200F0900292E4F0900293F0900294F090028A
:101FB20095F0900296E4F0900297F0900298F090DB
:101FC2000299F090029AE4F090029BF090029CF049
:101FD20090029DF090029EE4F090029FF09002A089
:101FE200F09002A1F09002A2E4F09002A3F090021D
:101FF200A4F09002A5F09002A6E4F09002A7F0905F
:1020020002A8F09002A9F09002AAE4F09002ABF0CC
:102012009002ACF09002ADF09002AEE4F09002AF0C
:10202200F09002B0F09002B1F09002B2E4F09002AF
:10203200B3F09002B4F09002B5F09002B6E4F090E2
:1020420002B7F09002B8F09002B9F09002BAE4F050
:102052009002BBF09002BCF09002BDF09002BEE490
:10206200F09002BFF09002C0F09002C1F09002C264
:10207200E4F09002C3F090028EE0FAA3E0FBA3E04A
:10208200FC7D00ED2AFEE43BFF8C008E828F83886C
:10209200F0123433FE600FED2492F582E43402F53F
:1020A20083EEF00D80DDED2492F582E43402F583B7
:1020B200EEF090028BE0F509EDFB14FC7E00C3EE1E
:1020C2009D40030221A7900291E0FFE4BF010104B9
:1020D200FF70030221A7850982C003C004C005C0A6
:1020E20006C007121D28D007D006D005D004D003A1
:1020F2007800B81000502EEF602BE82492F582E4AD
:102102003402F583E0F582C003C004C005C006C0F6
:1021120007C00012077ED000D007D006D005D00439
:10212200D0030880CD758201C003C004C005C0067B
:102132001224BAD006D005D004D003900292E0F562
:1021420008900291E0F8E4B8010104F87901C3E9CA
:102152009B5024E86021C004E9142492FCE4340278
:10216200FFE92492F582E43402F583E0FA8C828F4F
:1021720083F009D00480D7EC2492F582E43402F58E
:1021820083E508F0C003C004C005C006122738AAC0
:1021920082D006D005D004D003900291EAF0EA6022
:1021A200040E0220C0900291E0F58222E5829002A4
:1021B200C6F09002C4E0FA9002C5E0900127F08ACE
:1021C200821207269002C6E0F58202077EE582901F
:1021D20002CAF09002C8E0FA9002C9E0FB9002CA7B
:1021E200E0FC9002C7E0FD900270EBF0900271EC0F
:1021F200F0900272EDF08A82C002C003121D68D014
:1022020003D002900127EBF08A8212072675820022
:0322120002077E42
:1036C500630063000000630000007D0063000000EC
:1036D5005400000000000000A700000000000000EA
:1036E5007D0000000000A70000000000C7000000EA
:1036F500000095000000850000008D009500000089
:10370500A700630054004B0000005E005400000059
:10371500630000007D0070008500000000007D0052
:1037250000000000A70000000000C7000000000026
:1037350095000000850000008D0095000000A700A1
:10374500630054004B0000005E005400000063005D
:1037550000007D0070008500000000000F0F0F0FB6
:103765000F0F0F0F0F0F0F0F0F0F0F0F0F0F0F0F64
:103775000F0F0F0F0F0F0F0F0F0F0F0F0C0C0C0F5D
:103785000F0F0F0F0F0F0F0F0F0F0F0F0F0F0F0F44
:103795000F0F0F0F0F0F0F0F0F0F0F0C0C0C0F0F3D
:1037A5000F0F0F0F0F0F0F0F0F0FFB007D002A01DB
:1037B50095001A018D0000000000FB007D002A0124
:1037C50095001A018D00000000007801BC00BF01C2
:1037D500DF00A601D300000000007801BC00BF0196
:1037E500DF00A601D30000000000D300ED00DF00DC
:1037F500ED00D300D3003C014F01ED00FB00B1000B
:10380500BC008E018D0095009E00D3000A011A01AF
:103815002A013C010000000000000C0C0C0C0C0CF3
:1038250006030C0C0C0C0C0C06030C0C0C0C0C0CF1
:1038350006030C0C0C0C0C0C0606121212060606DE
:103845000606061212121212120A0A0A0A0A0A03B6
:1038550003038500850000008500700070000000EE
:10386500700095009500000095008500850000001A
:1038750000000606060606060606060606060606EF
:0F3885000606FB000000060CED000000060C001C
:10221500758C00758A00758921758DFD758BFDD2CC
:102225008E7590009002D0E4F09002CFF022AA8340
:10223500E5829002D3F0A3EAF09002D17401F09008
:1022450002CFE0FA60030222D19002D2E0FB607C6B
:102255009002D3E0FBA3E0FC9003877441F0E4A374
:10226500F08B828C83C003C00412323BAD82AE83F7
:10227500D004D0039002CBEDF0A3EEF09003907460
:1022850041F0E4A3F08B828C8312330EAB82AC83D6
:1022950090038EEBF0A3ECF09003E81232EEAB82E4
:1022A500AC83E4FDFE74FFC39BFB74FF9CFCE49DC3
:1022B500FDE49EFE9002CDEBF0A3ECF0D28C9002F3
:1022C500CF7401F09002CFE0603D80F8EA7038905D
:1022D50002CB7401F0A3E4F09002D3E0FAA3E0FB93
:1022E500E4FCFD74FFC39AFA74FF9BFBE49CFCE4D9
:1022F5009DFD9002CDEAF0A3EBF0D28C9002D0E0E8
:1023050060FA9002D0E4F022C0E0C082C083C0022F
:10231500C003C004C005C006C007C0D075D0007595
:102325008C00758A00C28DC28C9002CBE0FAA3E0C6
:10233500FBC374019AE49B5014EA24FFFCEB34FFC1
:10234500FD9002CBECF0A3EDF0D28C803EBA0132C9
:10235500BB002F9002CDE0FCA3E0FD8C067F008E34
:102365008C8D8A9002CBE0FCA3E0FD1CBCFF011D17
:102375009002CBECF0A3EDF09002D07401F0D28C7A
:102385008009EA4B70059002CFE4F0D0D0D007D099
:1023950006D005D004D003D002D083D082D0E0325D
:1023A500AA83E5829002DEF0A3EAF09002DCE0FA6F
:1023B500A3E0FB9002DEE0FCA3E0FD90038EEAF0D3
:1023C500A3EBF08C828D83C004C0051232EEAA8285
:1023D500AB8390038774E8F0A37403F08A828B8340
:1023E50012323BAA82AB83D005D0047E007F008CDD
:1023F500008D01E4F50AF50BF50CF50DC3E50A9A18
:10240500E50B9BE50C9EE50D64808FF063F08095F0
:10241500F0504F90FFE474FFF0E4F50EF50FC3E5BF
:102425000E98E50F99500A050EE4B50EF1050F80DB
:10243500ED90FFE4E4F0E4F50EF50FC3E50E9CE541
:102445000F9D500A050EE4B50EF1050F80ED050A46
:10245500E4B50A0C050BB50B07050CB50C9E050D6F
:10246500809A22AA83E5829002E2F0A3EAF0900224
:10247500E0E0FAA3E0FB900387EAF0A3EBF090031A
:10248500E812323BAA82AB839002E2E0FCA3E0FDB6
:102495009002DCEAF0A3EBF08C828D83C002C003CE
:1024A5001223A5D003D0029002DCEAF0A3EBF09052
:1024B50000000223A5E5829002E4F09002E4E0FA30
:1024C500BA0164900905E0FBA3E0FC8B05CD25E08E
:1024D500CD33FEED24C9F582EE3408F583E0FDA386
:1024E500E0FEEB24E9F582EC3408F583E09002E0A8
:1024F500F0A3E4F08D828E83122468900905E0FB39
:10250500A3E0FC74012BFDE43CFEC3ED9410EE94B6
:1025150000500C90090574012BF0E43CA3F02290C7
:102525000905E4F0A3F022BA0264900905E0FBA3D3
:10253500E0FC8B05CD25E0CD33FEED2421F582EEC3
:102545003408F583E0FDA3E0FEEB2491F582EC343D
:1025550008F583E09002E0F0A3E4F08D828E83120B
:102565002468900905E0FBA3E0FC74012BFDE43C25
:10257500FEC3ED9438EE9400500C90090574012BC0
:10258500F0E43CA3F022900905E4F0A3F022BA039D
:1025950064900905E0FBA3E0FC8B05CD25E0CD3378
:1025A500FEED2437F582EE3407F583E0FDA3E0FE6A
:1025B500EB24D3F582EC3407F583E09002E0F0A339
:1025C500E4F08D828E83122468900905E0FBA3E078
:1025D500FC74012BFDE43CFEC3ED944EEE940050DB
:1025E5000C90090574012BF0E43CA3F02290090539
:1025F500E4F0A3F022BA045F900905E4F0A3F0909B
:102605000905E0FBA3E0FCC3EB9402EC9400400158
:10261500228B05ECCD25E0CD33FEED24F9F582EED8
:102625003408F583E0FDA3E0FEEB24FDF582EC34F0
:1026350008F583E09002E0F0A3E4F08D828E83122A
:102645002468900905E0FBA3E0FC90090574012BC3
:10265500F0E43CA3F080A8BA055E900905E4F0A378
:10266500F0900905E0FAA3E0FBC3EA9402EB9400BD
:1026750050468A04EBCC25E0CC33FDEC24FFF582F3
:10268500ED3408F583E0FCA3E0FDEA2403F582EBD5
:102695003409F583E09002E0F0A3E4F08C828D83A9
:1026A500122468900905E0FAA3E0FB90090574017E
:0926B5002AF0E43BA3F080A92205
:10389400630063000000630000007D00630000001B
:1038A4005400000000000000A70000000000000019
:1038B4007D0000000000A70000000000C700000019
:1038C400000095000000850000008D0095000000B8
:1038D400A700630054004B0000005E005400000089
:1038E400630000007D0070008500000000007D0082
:1038F40000000000A70000000000C7000000000056
:1039040095000000850000008D0095000000A700D0
:10391400630054004B0000005E005400000063008C
:1039240000007D0070008500000000000F0F0F0FE5
:103934000F0F0F0F0F0F0F0F0F0F0F0F0F0F0F0F93
:103944000F0F0F0F0F0F0F0F0F0F0F0F0C0C0C0F8C
:103954000F0F0F0F0F0F0F0F0F0F0F0F0F0F0F0F73
:103964000F0F0F0F0F0F0F0F0F0F0F0C0C0C0F0F6C
:103974000F0F0F0F0F0F0F0F0F0FFB007D002A010A
:1039840095001A018D0000000000FB007D002A0153
:1039940095001A018D00000000007801BC00BF01F1
:1039A400DF00A601D300000000007801BC00BF01C5
:1039B400DF00A601D30000000000D300ED00DF000B
:1039C400ED00D300D3003C014F01ED00FB00B1003A
:1039D400BC008E018D0095009E00D3000A011A01DF
:1039E4002A013C010000000000000C0C0C0C0C0C23
:1039F40006030C0C0C0C0C0C06030C0C0C0C0C0C21
:103A040006030C0C0C0C0C0C06061212120606060D
:103A14000606061212121212120A0A0A0A0A0A03E5
:103A2400030385008500000085007000700000001D
:103A34007000950095000000950085008500000049
:103A4400000006060606060606060606060606061E
:103A54000606FB000000060CED000000060C00004A
:1026BE00E582900377F020990B900377E0F599105F
:1026CE00990280FB22E582900378F0900378E0FA7D
:1026DE0075F00A842430F582C0021226BED002752F
:1026EE00F00AEA84E5F02430F5821226BE75820ADD
:1026FE000226BEAA998A8222900907E0F58222E577
:10270E008290037CF0900379E0FAA3E0FBA3E0FC57
:10271E00900374EAF0A3EBF0A3ECF090037CE0FAE4
:10272E006004759850227598402230981112270136
:10273E00AA82900907EAF0BA2004758200227582F7
:10274E000122AAF0AB83E582900380F0A3EBF0A305
:10275E00EAF09003837401F0900374E0FAA3E0FBB7
:10276E00A3E0FC8A828B838CF0123433FD74012A31
:10277E00FEE43BFF8C008E828F8388F0123433FE92
:10278E0074022AFFE43BF88C018F82888389F01251
:10279E003433FF74032AFAE43BFB8A828B838CF07A
:1027AE00123433FA9002C7EEF09002C8EFF09002A6
:1027BE00C9EAF08D821221CF20980302320312272C
:1027CE0001AA82900907EAF0BA77028008BA570286
:1027DE008003022A79900374E0FBA3E0FCA3E0FDE2
:1027EE008B828C838DF0123433FEFF78001FBFFF77
:1027FE000118C3E49F748088F063F08095F0400365
:10280E000228FB74022BFFE43CF88D018F82888333
:10281E0089F0123433780024FFF510E834FFF511F7
:10282E0090037DE0F512A3E0F513A3E0F514AF10CD
:10283E00E511C454F0CFC4CF6FCF54F0CF6FF8EF83
:10284E002512F512E83513F51374032BFFE43CF84B
:10285E008D018F82888389F0123433142512FFE4A0
:10286E003513F8A9148F82888389F0123433FF331D
:10287E0095E0F8EF24FFF512E834FFF5139003808E
:10288E00E0F515A3E0F516A3E0F517AF12E513C4B6
:10289E000354F8CFC403CF6FCF54F8CF6FF8EF25A2
:1028AE0015FFE83516F8A917EE24FE2FF515E438B6
:1028BE00F516891774012BFFE43CF88D018F828881
:1028CE008389F0123433FF9003847405C39FF0752F
:1028DE008202123207AF828515828516838517F024
:1028EE00123433F8900383EF58F0022A15E4BE0138
:1028FE000104FE70030229FA74022BFFE43CF88DEA
:10290E00018F82888389F0123433FF24FE40030244
:10291E0029FA7800EF24FEF515E834FFF51690033A
:10292E007DE0F512A3E0F513A3E0F514AF15E5165F
:10293E00C454F0CFC4CF6FCF54F0CF6FF8EF251241
:10294E00F515E83513F51685141774032BFFE43CC3
:10295E00F88D018F82888389F0123433142515FF88
:10296E00E43516F8A9178F82888389F0123433FF65
:10297E003395E0F8EF24FFF515E834FFF5169003D4
:10298E0080E0F512A3E0F513A3E0F514AF15E516FC
:10299E00C40354F8CFC403CF6FCF54F8CF6FF8EF02
:1029AE002512FFE83513F8A91474072FF515E4382E
:1029BE00F516891774012BFFE43CF88D018F828880
:1029CE008389F0123433FF9003847405C39FF0752E
:1029DE008202123207AF828515828516838517F023
:1029EE00123433F8900383EF58F0801BEE601874A6
:1029FE00022BFBE43CFC8B828C838DF0123433FB78
:102A0E00BB010475820022900383E0FB6003023158
:102A1E00FE900374E0FBA3E0FCA3E0FD8B828C83AD
:102A2E008DF0123433FEBE0102800E1E8B828C831B
:102A3E008DF0EE1232D50231FE74022BFEE43CFF15
:102A4E008D008E828F8388F0123433F9B901030220
:102A5E0031FE8B828C838DF074081232D5198E82E2
:102A6E008F8388F0E91232D50231FEBA73028008E4
:102A7E00BA53028003022CC5900374E0FBA3E0FC62
:102A8E00A3E0FD8B828C838DF0123433FEFF780031
:102A9E001FBFFF0118C3EF9407E8648094804003C2
:102AAE00022B9C74022BFFE43CF88D018F828883ED
:102ABE0089F0123433780024FFF515E834FFF5164B
:102ACE0090037DE0F512A3E0F513A3E0F514AF1526
:102ADE00E516C454F0CFC4CF6FCF54F0CF6FF8EFDC
:102AEE002512F515E83513F51685141774032BFF0B
:102AFE00E43CF88D018F82888389F01234331425DB
:102B0E0015FFE43516F8A9178F82888389F01234E1
:102B1E0033FF3395E0F8EF24FFF515E834FFF51693
:102B2E00900380E0F512A3E0F513A3E0F514AF15C2
:102B3E00E516C40354F8CFC403CF6FCF54F8CF6F4C
:102B4E00F8EF2512FFE83513F8A914EE2FF515E46A
:102B5E0038F516891774012BFEE43CFF8D008E822A
:102B6E008F8388F0123433FE9003847405C39EF075
:102B7E00758202123207AE828515828516838517FD
:102B8E00F0123433FF900383EE5FF0022C61740277
:102B9E002BFEE43CFF8D008E828F8388F01234333F
:102BAE00FE90037DE0FFA3E0F8A3E0F9EEC454F03D
:102BBE002FF515E438F516891774032BFEE43CFF48
:102BCE008D008E828F8388F0123433142515FEE427
:102BDE003516FFA8178E828F8388F0123433FE339A
:102BEE0095E0FFEE24FFF515EF34FFF51690038008
:102BFE00E0F512A3E0F513A3E0F514AF15E516C446
:102C0E000354F8CFC403CF6FCF54F8CF6FFEEF2528
:102C1E0012FFEE3513FEA8140BBB00010C8B828C39
:102C2E00838DF0123433FB9003847405C39BF075CF
:102C3E008202C006C007C000123207AB82D000D09D
:102C4E0007D0068F828E8388F0123433FF90038371
:102C5E00EB5FF0900383E0FB60030231FE900374A0
:102C6E00E0FBA3E0FCA3E0FD8B828C838DF012349D
:102C7E0033FEBE0802800E0E8B828C838DF0EE1218
:102C8E0032D50231FE74022BFEE43CFF8D008E82A3
:102C9E008F8388F0123433F9B904030231FE8B822C
:102CAE008C838DF074011232D5098E828F8388F059
:102CBE00E91232D50231FEBA64028008BA440280AB
:102CCE0003022F62900374E0FBA3E0FCA3E0FD740B
:102CDE00012BFEE43CFF8D008E828F8388F0123430
:102CEE0033FEFF78000FBF000108C3EF9406E864BF
:102CFE008094804003022DEC74022BFFE43CF88D8F
:102D0E00018F82888389F0123433780024FFF51501
:102D1E00E834FFF51690037DE0F512A3E0F513A35A
:102D2E00E0F514AF15E516C454F0CFC4CF6FCF54F1
:102D3E00F0CF6FF8EF2512F515E83513F51685145B
:102D4E001774032BFFE43CF88D018F82888389F082
:102D5E00123433142515FFE43516F8A9178F82881F
:102D6E008389F0123433FF3395E0F8EF24FFF51525
:102D7E00E834FFF516900380E0F512A3E0F513A3F7
:102D8E00E0F514AF15E516C40354F8CFC403CF6FA6
:102D9E00CF54F8CF6FF8EF2512F515E83513F51669
:102DAE008514178B828C838DF0123433142515F510
:102DBE0015E43516F516EE04900384D39405F4F05D
:102DCE00758202123207AF828515828516838517AA
:102DDE00F0123433F8900383EF58F0022EF7E4BE6E
:102DEE00050104FE7003022EDC74032BFFE43CF895
:102DFE008D018F82888389F0123433F515C39410B8
:102E0E004003022EDC74022BF8E43CF98D07888215
:102E1E0089838FF01234337F0024FFF512EF34FFD5
:102E2E00F51390037DE0F518A3E0F519A3E0F51A6C
:102E3E00AF12E513C454F0CFC4CF6FCF54F0CF6FA1
:102E4E00F8EF2518FFE83519F8A91AE5152FFFE454
:102E5E0038F88F82888389F0123433FF3395E0F887
:102E6E00EF24FFF518E834FFF519900380E0F5150F
:102E7E00A3E0F516A3E0F517AF18E519C40354F84F
:102E8E00CFC403CF6FCF54F8CF6FF8EF2515F518D9
:102E9E00E83516F51985171A8B828C838DF012344E
:102EAE0033142518F518E43519F5199003847404B4
:102EBE00F0758202123207AF8285188285198385DA
:102ECE001AF0123433F8900383EF58F0801BEE6043
:102EDE001874032BFBE43CFC8B828C838DF0123434
:102EEE0033FBBB100475820022900383E0FB60036A
:102EFE000231FE900374E0FBA3E0FCA3E0FD74013D
:102F0E002BFEE43CFF8D008E828F8388F0123433CB
:102F1E00F9B90502800E098E828F8388F0E912328C
:102F2E00D50231FE74032BFBE43CFC8B828C838D2B
:102F3E00F0123433F9B910030231FE8E828F83887A
:102F4E00F074011232D5098B828C838DF0E9123226
:102F5E00D50231FEBA61028008BA41028003023105
:102F6E00FE900374E0FAA3E0FBA3E0FC74012AFDDB
:102F7E00E43BFE8C078D828E838FF0123433FD7FFF
:102F8E000024FEFEEF34FFFFC374FF9E747F8FF0AC
:102F9E0063F08095F0400302309074022AFEE43B09
:102FAE00FF8C008E828F8388F01234337F0024FFD3
:102FBE00F518EF34FFF51990037DE0F515A3E0F554
:102FCE0016A3E0F517AF18E519C454F0CFC4CF6FB0
:102FDE00CF54F0CF6FFEEF2515F518EE3516F51917
:102FEE0085171A74032AF9E43BFE8C0789828E83B7
:102FFE008FF0123433142518FEE43519FFA81A8EFB
:10300E00828F8388F0123433FE3395E0FFEE24FF77
:10301E00F518EF34FFF519900380E0F515A3E0F5F0
:10302E0016A3E0F517AF18E519C40354F8CFC4037F
:10303E00CF6FCF54F8CF6FFEEF2515FFEE3516FE8E
:10304E00A8178A828B838CF0123433142FFFE43E40
:10305E00FEED14900384D39405F4F0758202C0063D
:10306E00C007C000123207A982D000D007D0068F49
:10307E00828E8388F0123433FF900383E95FF0026F
:10308E00319BE4BD010104FD700302318074032AFB
:10309E00FEE43BFF8C008E828F8388F0123433FE69
:1030AE0024FE400302318074022AFFE43BF88C01B7
:1030BE008F82888389F0123433780024FFF518E864
:1030CE0034FFF51990037DE0F515A3E0F516A3E0A6
:1030DE00F517AF18E519C454F0CFC4CF6FCF54F025
:1030EE00CF6FF8EF2515FFE83516F8A917EE24FE79
:1030FE002FFFE438F88F82888389F0123433FF3340
:10310E0095E0FEEF24FFF518EE34FFF519900380DD
:10311E00E0F515A3E0F516A3E0F517AF18E519C411
:10312E000354F8CFC403CF6FCF54F8CF6FFEEF2503
:10313E0015FFEE3516FEA8178A828B838CF012349B
:10314E0033142FFFE43EFE900384E4F0758202C038
:10315E0006C007C000123207A982D000D007D006E1
:10316E008F828E8388F0123433FF900383E95FF0F1
:10317E00801BED601874032AFAE43BFB8A828B8372
:10318E008CF0123433FABA01047582002290038354
:10319E00E0FA705C900374E0FAA3E0FBA3E0FC7429
:1031AE00012AFDE43BFE8C078D828E838FF0123454
:1031BE0033F8B80102800D188D828E838FF0E812DD
:1031CE0032D5802C74032AFAE43BFB8A828B838CE3
:1031DE00F0123433F8B8010280168D828E838FF090
:1031EE0074051232D5188A828B838CF0E81232D590
:0931FE001207D5C2987582012266
:013A64000061
:10320700E582900385F09003867401F0900385E0D2
:10321700FA900384E0FB7C00C3EC9B50109003867C
:10322700E0FD9003868DF0EAA4F00C80EB90038616
:10323700E0F58222AA83E582900389F0A3EAF09061
:10324700038BE4F0A3F0900387E0FAA3E0FB7C1084
:10325700900389E0FDA3E0FE339200EECD25E0CD9B
:1032670033FE900389EDF0A3EEF090038BE0FDA30E
:10327700E0CD25E0CD33FE90038BEDF0A3EEF030EB
:10328700001290038BE0FDA3E0FE90038B74014DC9
:10329700F0A3EEF090038BE0FDA3E0FEC3ED9AEE02
:1032A7009B401D90038BEDC39AF0EE9BA3F0900318
:1032B70089E0FDA3E0FE90038974014DF0A3EEF0D1
:0E32C700DC8E900389E0FAA3E08A82F5832270
:06004200E478FFF6D8FD92
:10002000796FE94405601B7A069034F6789975A0DB
:1000300003E493F2A308B8000205A0D9F4DAF2753C
:02004000A0FF1F
:1032D50020F71030F6118883A88220F507F6A88319
:1032E50075830022F280F7F022AA83AB828BF090DF
:1032F500038EE0A4F8A9F08AF0E0A429F98BF0A3E5
:10330500E0A429F58388822222AA83E5829003928C
:10331500F0A3EAF0900394E4F0900392E0FAA3E0BE
:10332500FB7C00900390E0FDA3E0FE235401FF70B9
:1033350037EECD25E0CD33FE900390EDF0A3EEF012
:10334500900390E0FDA3E0FEC3EA9DEB9E5011EED5
:10335500C313CD13CDFE900390EDF0A3EEF08008DE
:103365000C900394ECF080BB900394E0FA900392E8
:10337500E0FBA3E0FC900390E0FDA3E0FEC3EB9D22
:10338500EC9E400B900392EBC39DF0EC9EA3F09056
:103395000390E0FBA3E0C313CB13CBFC900390EBAE
:1033A500F0A3ECF08A031AEB70C3900392E0FAA342
:1033B500E08A82F58322AA83E582900397F0A3EA47
:1033C500F0900397E0FAA3E0FB30E709C3E49AFC29
:1033D500E49BFD80048A048B058C028D0390039584
:1033E500E0FCA3E0FD33E433FE6009C3E49CFFE4A5
:1033F5009DF880048C078D00900387EFF0A3E8F01B
:103405008A828B83C00612323BAA82AB83D0069098
:103415000397E0FCA3E0FD33E4336E600CC3E49A4C
:0E342500FCE49BFD8C828D83228A828B8322A5
:100048007800E84400600A790075A000E4F309D854
:10005800FC7899E84403600C7904900000E4F0A36C
:04006800D8FCD9FAED
:0D00130075812012344FE582600302000E5B
:1034330020F71430F6148883A88220F507E6A883C2
:1034430075830022E280F7E49322E0227582002252
:00000001FF
