:0400000002001332B5
:03000B000223923B
:03006C0002000E81
:05000E001206E380FE74
:07006F0075A88275B8082294
:0700760012006F12229A1222
:0E007D00070090008FE0FAA3E0FBA3E0FC90E8
:0E008B00037AEAF0A3EBF0A3ECF07582010219
:020099002792AC
:0A009B009000927401F012085C90CE
:0C00A50002757402F09002767402F09074
:0800B10034D875F080121E9C8A
:0E00B900900092E0FA602090028C7403F090A8
:0E00C700028D74FAF0E4A3F09034E275F0803C
:0B00D500121FAEE582900092F080D96F
:0300E000021E58A5
:0D00E3009002757401F09002767402F090A6
:0900F00034FE75F080121E9C9094
:0C00F90002757402F09002767401F09021
:09010500350975F080121E9C9072
:0C010E0002757403F09002767402F09009
:09011A00351A75F080121E9C904C
:0C01230002D37401F0900DAC1222B8124F
:09012F001E589002757401F09055
:0C01380002767402F090352375F08012FE
:090144001E9C9002757402F090FB
:0C014D0002767401F090352F75F08012DE
:090159001E9C9002757403F090E5
:0C01620002767401F090353F75F08012B9
:09016E001E9C9002757404F090CF
:0C01770002767401F090355075F0801293
:0C0183001E9C9002D37401F0900DAC1291
:05018F0022B8021E5819
:0D0194009000937401F09002757402F090D9
:0C01A10002767402F090355F75F0801259
:0901AD001E9C9002757403F09091
:0C01B60002767402F090356575F080123E
:0C01C2001E9C9002D37401F0900BB81248
:0601CE0022B8121E589039
:0E01D400008FE0FAA3E0FBA3E0FC8A828B839D
:0E01E2008CF0740712335A90008FE0FAA3E0FD
:0901F000FBA3E0FC0ABA00010BBC
:0E01F9008A828B838CF0740312335A90008F2D
:0E020700E0FAA3E0FBA3E0FC74022AFAE43B59
:0D021500FB8A828B838CF0740412335A90A4
:0E022200008FE0FAA3E0FBA3E0FC74032AFACD
:0E023000E43BFB8A828B838CF0740A12335AF3
:03023E001207F3B1
:0E024100900093E0FA604E90008FE0FAA3E088
:0E024F00FBA3E0FC74022AFAE43BFB8A828BDC
:0E025D00838CF01234B8FA90008FE0FBA3E01F
:0E026B00FCA3E0FD74032BFBE43CFC8B828CB7
:0B027900838DF01234B890026DF090FD
:0D028400026E7401F08A82121CD8E582908F
:050291000093F080ABBA
:03029600021E58ED
:0D0299009000947401F09002757402F090D2
:0C02A60002767402F090355F75F0801253
:0902B2001E9C9002757403F0908B
:0C02BB0002767402F090356775F0801236
:0C02C7001E9C9002D37401F0900BB81242
:0602D30022B8121E5812B1
:0E02D9000C7690008FE0FAA3E0FBA3E0FC8A15
:0E02E700828B838CF0740712335A90008FE0E4
:0C02F500FAA3E0FBA3E0FC0ABA00010B36
:0E0301008A828B838CF0740212335A90008F24
:0E030F00E0FAA3E0FBA3E0FC74022AFAE43B50
:0D031D00FB8A828B838CF0740412335A909B
:0E032A00008FE0FAA3E0FBA3E0FC74032AFAC4
:0E033800E43BFB8A828B838CF0740212335AF2
:0E034600900094E0FA604E90008FE0FAA3E081
:0E035400FBA3E0FC74022AFAE43BFB8A828BD6
:0E036200838CF01234B8FA90008FE0FBA3E019
:0E037000FCA3E0FD74032BFBE43CFC8B828CB1
:0B037E00838DF01234B890026DF090F7
:0D038900026E7402F08A82121CD8E5829088
:050396000094F080ABB3
:03039B00021E58E7
:0D039E009000957401F09002757402F090CB
:0C03AB0002767402F090355F75F080124D
:0903B7001E9C9002757403F09085
:0C03C00002767402F090356975F080122E
:0C03CC001E9C9002D37401F0900BB8123C
:0603D80022B8121E5812AB
:0E03DE00108E90008FE0FAA3E0FBA3E0FC8AF3
:0E03EC00828B838CF0740512335A90008FE0E0
:0C03FA00FAA3E0FBA3E0FC0ABA00010B30
:0E0406008A828B838CF0740512335A90008F1B
:0E041400E0FAA3E0FBA3E0FC74022AFAE43B4A
:0D042200FB8A828B838CF0740412335A9095
:0E042F00008FE0FAA3E0FBA3E0FC74032AFABE
:0E043D00E43BFB8A828B838CF0740A12335AE4
:0E044B00900095E0FA604E90008FE0FAA3E07A
:0E045900FBA3E0FC74022AFAE43BFB8A828BD0
:0E046700838CF01234B8FA90008FE0FBA3E013
:0E047500FCA3E0FD74032BFBE43CFC8B828CAB
:0B048300838DF01234B890026DF090F1
:0D048E00026E7403F08A82121CD8E5829081
:05049B000095F080ABAC
:0304A000021E58E1
:0D04A3009000967401F09002757402F090C4
:0C04B00002767402F090355F75F0801247
:0904BC001E9C9002757403F0907F
:0C04C50002767402F090356B75F0801226
:0C04D1001E9C9002D37401F0900BB81236
:0604DD0022B8121E5812A5
:0E04E30014A690008FE0FAA3E0FBA3E0FC8AD1
:0E04F100828B838CF0740312335A90008FE0DC
:0C04FF00FAA3E0FBA3E0FC0ABA00010B2A
:0E050B008A828B838CF0740412335A90008F16
:0E051900E0FAA3E0FBA3E0FC74022AFAE43B44
:0D052700FB8A828B838CF0740412335A908F
:0E053400008FE0FAA3E0FBA3E0FC74032AFAB8
:0E054200E43BFB8A828B838CF0741012335AD8
:0E055000900096E0FA604E90008FE0FAA3E073
:0E055E00FBA3E0FC74022AFAE43BFB8A828BCA
:0E056C00838CF01234B8FA90008FE0FBA3E00D
:0E057A00FCA3E0FD74032BFBE43CFC8B828CA5
:0B058800838DF01234B890026DF090EB
:0D059300026E7402F08A82121CD8E582907C
:0505A0000096F080ABA5
:0305A500021E58DB
:0D05A8009000977401F09002757402F090BD
:0C05B50002767402F090355F75F0801241
:0905C1001E9C9002757403F09079
:0C05CA0002767402F090356D75F080121E
:0C05D6001E9C9002D37401F0900BB81230
:0605E20022B8121E58129F
:0E05E80018BF90008FE0FAA3E0FBA3E0FC8AAE
:0E05F600828B838CF0740712335A90008FE0D2
:0C060400FAA3E0FBA3E0FC0ABA00010B23
:0E0610008A828B838CF0740512335A90008F0F
:0E061E00E0FAA3E0FBA3E0FC74022AFAE43B3E
:0D062C00FB8A828B838CF0740412335A9089
:0E063900008FE0FAA3E0FBA3E0FC74032AFAB2
:0E064700E43BFB8A828B838CF0740112335AE1
:0E065500900097E0FA604E90008FE0FAA3E06C
:0E066300FBA3E0FC74022AFAE43BFB8A828BC4
:0E067100838CF01234B8FA90008FE0FBA3E007
:0E067F00FCA3E0FD74032BFBE43CFC8B828C9F
:0B068D00838DF01234B890026DF090E5
:0D069800026E7402F08A82121CD8E5829076
:0506A5000097F080AB9E
:0306AA00021E58D5
:0D06AD009002757402F09002767402F090D5
:0906BA00356F75F080121E9C9052
:0C06C30002757403F09002767402F0904F
:0906CF00357475F080121E9C9038
:0B06D80002D37401F0900BB80222B8AE
:0306E3001200768C
:0706E60012009B1200E31259
:0606ED00019412029912B3
:0606F300039E1204A31295
:0706F90005A81206AD80E622
:0A34D8004D415A452047414D450083
:0E34E200206170657274652045535041434F60
:0E34F000207061726120696E6963696172000B
:0B34FE00494E53545255434F455300B4
:0E3509003129204D6F76696D656E7465206303
:033517006F6D00D5
:09351A00572C532C412C442000D5
:0C352300434F4D4F2047414E484152009D
:0E352F004163686520756D6120736169646198
:02353D0020006C
:0E353F00706172612043494D412C4449524550
:03354D00492D0005
:0E3550005441206F752045535155455244415A
:01355E00006C
:06355F004E4956454C00E8
:02356500310033
:02356700320030
:0235690033002D
:02356B0034002A
:02356D00350027
:05356F00564F4345002A
:0735740056454E434555008A
:01357B00004F
:0E357C00630063000000630000007D00630038
:0E358A0000005400000000000000A700000038
:0E359800000000007D0000000000A700000001
:0E35A6000000C7000000000095000000850036
:0E35B40000008D0095000000A7006300540089
:0E35C2004B0000005E0054000000630000009B
:0E35D0007D0070008500000000007D000000FE
:0E35DE000000A70000000000C7000000000071
:0E35EC0095000000850000008D009500000095
:0E35FA00A700630054004B0000005E00540068
:0E3608000000630000007D00700085000000DF
:023616000000B2
:0E3618000F0F0F0F0F0F0F0F0F0F0F0F0F0FD2
:0E3626000F0F0F0F0F0F0F0F0F0F0F0F0F0FC4
:0E3634000F0F0F0F0C0C0C0F0F0F0F0F0F0FBF
:0E3642000F0F0F0F0F0F0F0F0F0F0F0F0F0FA8
:0E3650000F0F0F0F0F0F0F0C0C0C0F0F0F0FA3
:08365E000F0F0F0F0F0F0F0FEC
:0E366600FB007D002A0195001A018D00000076
:0E3674000000FB007D002A0195001A018D0068
:0E368200000000007801BC00BF01DF00A601BF
:0E369000D300000000007801BC00BF01DF0085
:0E369E00A601D30000000000D300ED00DF0005
:0E36AC00ED00D300D3003C014F01ED00FB0008
:0E36BA00B100BC008E018D0095009E00D30073
:0E36C8000A011A012A013C0100000000000066
:0E36D6000C0C0C0C0C0C06030C0C0C0C0C0C4D
:0E36E40006030C0C0C0C0C0C06030C0C0C0C4E
:0E36F2000C0C0606121212060606060606123A
:0E37000012121212120A0A0A0A0A0A0303031C
:0E370E0085008500000085007000700000003E
:0E371C00700095009500000095008500850066
:04372A00000000009B
:0E372E00060606060606060606060606060639
:02373C0006067F
:04373E00FB0000008C
:02374200060C73
:04374400ED00000094
:02374800060C6D
:0E07000090FFC27401F09002D3E4F090000A62
:0E070E001222B890FFC2743FF09002D3E4F0C4
:0D071C0090000A1222B890FFC27406F090FF
:0E07290002D3E4F090000A1222B890FFC274CE
:0D0737000CF09002D3E4F090000A0222B80A
:0E074400E582900128F0900128E0FABA010E3B
:0E075200900127E0FB90FFC2747F2BF08031F6
:0E076000BA020E900127E0FB90FFC274BF2B7F
:03076E00F08020F8
:0E077100BA030E900127E0FB90FFC2748F2B9D
:03077F00F0800FF8
:0E078200BA040C900127E0FA90FFC274CF2A4F
:01079000F078
:0B0791009002D3E4F090000A0222B8AE
:0E079C00E582900129F0900129E090FFD2F053
:0B07AA009002D3E4F090000A0222B895
:0C07B500E58290012BF090012BE0FA90FF
:0E07C100012AE0FB900127F08A82C002C003EB
:0D07CF00120744D003D0021AEAC454F024EB
:0A07DC00E0FAE43400FCEB142AF507
:0D07E60082E43CF583E0FA1A8A8202079C47
:0207F3007A008A
:0307F500BA040043
:0E07F800506190012CE4F0EA04FBEAC454F0D6
:01080600FCF5
:0808070090012CE0FDBD100082
:0E080F005047ED04FE900127F08B82C002C01E
:0E081D0003C004C005C006120744D006D00573
:0A082B00D004EC24E0FFE43400F8F0
:0E083500ED2FF582E438F583E0FD1D8D82C0C5
:0E08430004C00612079CD006D004D003D002D9
:0708510090012CEEF080AFD6
:030858000A809A79
:01085B00227A
:0A085C0090012DE4F090012EF090C1
:08086600012FF0900130F09029
:09086E000131E4F0900132F09038
:080877000133F0900134F09010
:0C087F000135741FF09001367410F090E9
:0C088B000137741FF09001387410F090D9
:0C08970001397413F090013A7412F090D3
:0C08A300013B7412F090013C7412F090C4
:0B08AF00013D741FF090013EE4F0904A
:0C08BA00013F740EF09001407404F090B7
:0C08C6000141741EF09001427404F09097
:0C08D20001437404F09001447404F090A1
:0C08DE000145741FF09001467401F09079
:0C08EA000147740DF09001487409F09073
:0C08F60001497418F090014A7409F09058
:0C090200014B7419F090014C7409F09046
:0C090E00014D7417F090014E7410F09031
:0C091A00014F7415F0900150741CF09017
:0C09260001517404F0900152740CF09028
:0C09320001537405F09001547405F0901E
:0C093E0001557412F09001567410F090F6
:0C094A0001577412F09001587402F090F4
:0C09560001597412F090015A7412F090D4
:0C096200015B7412F090015C7412F090C4
:0C096E00015D7416F090015E7416F090AC
:0C097A00015F7413F09001607416F0909F
:0C09860001617414F09001627417F0908D
:0C09920001637410F0900164741FF09079
:0C099E0001657415F09001667415F0906E
:0C09AA0001677411F09001687404F09073
:0C09B60001697415F090016A7415F0904E
:0D09C200016B7414F090016C741FF07A004A
:0309CF00BA080063
:0509D2004003020A9C35
:0A09D700EA24A0FBE43400FCEA244B
:0A09E1002DF582E43401F583E08B6C
:0A09EB00828C83F0EA24A8FBE434B8
:0909F50000FCEA2435F582E4342B
:0B09FE0001F583E08B828C83F0EA247B
:080A0900B0FBE43400FCEA2418
:0A0A11003DF582E43401F583E08B2B
:0A0A1B00828C83F0EA24B8FBE43477
:090A250000FCEA2445F582E434EA
:0B0A2E0001F583E08B828C83F0EA244A
:080A3900C0FBE43400FCEA24D8
:0A0A41004DF582E43401F583E08BEB
:0A0A4B00828C83F0EA24C8FBE43437
:090A550000FCEA2455F582E434AA
:0B0A5E0001F583E08B828C83F0EA241A
:080A6900D0FBE43400FCEA2498
:0A0A71005DF582E43401F583E08BAB
:0A0A7B00828C83F0EA24D8FBE434F7
:090A850000FCEA2465F582E4346A
:0C0A8E0001F583E0FD8B828C83F00A02EE
:020A9A0009CF82
:0E0A9C0090FFC27440F09002D3E4F090000A84
:050AAA001222B87A00E1
:030AAF00BA080082
:0A0AB200503FEAC40354F8FB7C0037
:030ABC00BC080073
:0A0ABF00502FEB24A0FDE43400FEEC
:0E0AC900EC2DF582E43EF583E090FFD2F09034
:0E0AD70002D3E4F090000AC002C003C0041273
:0B0AE50022B8D004D003D0020C80CC5B
:030AF0000A80BCBD
:0D0AF3009000E07402F09000E17403F090B8
:0C0B000000E27403F09000E37403F09036
:0C0B0C0000E47404F09000E57404F09024
:0C0B180000E67405F09000E77402F09015
:0C0B240000E87404F09000E97405F09003
:0C0B300000EA7403F09000EB7403F090F6
:0C0B3C0000EC7403F09000ED7403F090E6
:0C0B480000EE7404F09000EF7404F090D4
:0C0B540000F07406F09000F17402F090C4
:0C0B600000F27404F09000F37402F090B6
:0C0B6C0000F47403F09000F57405F090A4
:0C0B780000F67406F09000F77402F09094
:0C0B840000F87403F09000F97406F09083
:0C0B900000FA7404F09000FB7403F09075
:0C0B9C0000FC7403F09000FD7406F09063
:0C0BA80000FE7403F09000FF7404F09055
:0C0BB40001007402F09001017405F09043
:0C0BC00001027407F09001037406F0902D
:0C0BCC0001047406F09001057403F09021
:0C0BD80001067405F09001077403F09012
:0C0BE40001087405F09001097405F09000
:0C0BF000010A7403F090010B7405F090F2
:0C0BFC00010C7402F090010D7405F090E3
:0C0C0800010E7403F090010F7402F090D4
:0C0C140001107407F09001117408F090BA
:0C0C200001127408F09001137408F090A9
:0C0C2C0001147408F09001157408F09099
:0C0C380001167408F09001177408F09089
:0C0C440001187407F09001197402F09080
:0C0C5000011A7408F090011B7408F09069
:0C0C5C00011C7408F090011D7408F09059
:0C0C6800011E7407F090011F7407F002D9
:020C740007F384
:0A0C760090016DE4F090016EF09023
:080C8000016FF0900170F0908B
:090C88000171E4F0900172F0909A
:080C91000173F0900174F09072
:0C0C99000175741BF09001767410F0904F
:0C0CA50001777417F09001787410F09043
:0C0CB10001797413F090017A7414F09033
:0C0CBD00017B7402F090017C7411F09037
:0B0CC900017D741FF090017EE4F090AC
:0C0CD400017F7417F09001807412F09002
:0C0CE00001817402F0900182740BF0900E
:0C0CEC0001837408F09001847405F090FE
:0C0CF8000185741FF09001867401F090DB
:0C0D040001877415F09001887405F090D0
:0C0D100001897404F090018A741DF090B9
:0B0D1C00018BE4F090018C7413F09048
:0C0D2700018D741DF090018E7415F09089
:0C0D3300018F7411F09001907415F09085
:0C0D3F0001917415F09001927414F09072
:0C0D4B0001937412F09001947419F09060
:0C0D57000195741CF0900196741DF09042
:0C0D630001977401F09001987403F09067
:0C0D6F0001997417F090019A7403F09041
:0C0D7B00019B741BF090019C741AF09016
:0C0D8700019D741DF090019E7411F0900D
:0C0D9300019F7413F09001A07417F09001
:0C0D9F0001A17414F09001A27415F090F2
:0C0DAB0001A37410F09001A4741FF090DC
:0C0DB70001A57406F09001A6740FF090E6
:0B0DC30001A7740FF09001A8E4F0906D
:0C0DCE0001A97403F09001AA7403F090D6
:0D0DDA0001AB7403F09001AC741FF07A00BF
:030DE700BA080047
:050DEA004003020EB4FD
:0A0DEF00EA24A0FBE43400FCEA242F
:0A0DF9006DF582E43401F583E08B10
:0A0E0300828C83F0EA24A8FBE4349B
:090E0D0000FCEA2475F582E434CE
:0B0E160001F583E08B828C83F0EA245E
:080E2100B0FBE43400FCEA24FC
:0A0E29007DF582E43401F583E08BCF
:0A0E3300828C83F0EA24B8FBE4345B
:090E3D0000FCEA2485F582E4348E
:0B0E460001F583E08B828C83F0EA242E
:080E5100C0FBE43400FCEA24BC
:0A0E59008DF582E43401F583E08B8F
:0A0E6300828C83F0EA24C8FBE4341B
:090E6D0000FCEA2495F582E4344E
:0B0E760001F583E08B828C83F0EA24FE
:080E8100D0FBE43400FCEA247C
:0A0E89009DF582E43401F583E08B4F
:0A0E9300828C83F0EA24D8FBE434DB
:090E9D0000FCEA24A5F582E4340E
:0C0EA60001F583E0FD8B828C83F00A02D2
:020EB2000DE74A
:0E0EB40090FFC27440F09002D3E4F090000A68
:050EC2001222B87A00C5
:030EC700BA080066
:0A0ECA00503FEAC40354F8FB7C001B
:030ED400BC080057
:0A0ED700502FEB24A0FDE43400FED0
:0E0EE100EC2DF582E43EF583E090FFD2F09018
:0E0EEF0002D3E4F090000AC002C003C0041257
:0B0EFD0022B8D004D003D0020C80CC3F
:030F08000A80BCA0
:0D0F0B009000E07402F09000E17403F0909B
:0C0F180000E27404F09000E37403F09019
:0C0F240000E47403F09000E57403F0900A
:0C0F300000E67405F09000E77404F090F7
:0C0F3C0000E87404F09000E97404F090E8
:0C0F480000EA7402F09000EB7403F090DB
:0C0F540000EC7404F09000ED7403F090C9
:0C0F600000EE7403F09000EF7404F090B9
:0C0F6C0000F07405F09000F17406F090A5
:0C0F780000F27408F09000F37402F09096
:0C0F840000F47405F09000F57405F09086
:0C0F900000F67406F09000F77408F09072
:0C0F9C0000F87408F09000F97402F09066
:0C0FA80000FA7406F09000FB7405F09055
:0C0FB40000FC7403F09000FD7406F09047
:0C0FC00000FE7404F09000FF7405F09037
:0C0FCC0001007405F09001017403F09026
:0C0FD80001027404F09001037408F09012
:0C0FE40001047404F09001057403F09007
:0C0FF00001067402F09001077403F090F9
:0C0FFC0001087406F09001097405F090E3
:0C100800010A7406F090010B7403F090D4
:0C101400010C7404F090010D7402F090C7
:0C102000010E7406F090010F7408F090AF
:0C102C0001107407F09001117402F090A4
:0C10380001127408F09001137408F0908D
:0C10440001147404F09001157406F09083
:0C10500001167407F09001177407F0906F
:0C105C0001187408F09001197407F0905E
:0C106800011A7404F090011B7407F09052
:0C107400011C7408F090011D7408F0903D
:0C108000011E7407F090011F7404F002C0
:02108C0007F368
:0A108E009001ADE4F09001AEF09087
:0810980001AFF09001B0F090EF
:0910A00001B1E4F09001B2F090FE
:0810A90001B3F09001B4F090D6
:0C10B10001B5741BF09001B6741BF090A8
:0C10BD0001B77418F09001B87419F0909D
:0C10C90001B9741AF09001BA7411F09093
:0C10D50001BB741AF09001BC7419F0907B
:0C10E10001BD741FF09001BE7408F09077
:0C10ED0001BF740AF09001C0740AF0907A
:0C10F90001C1740AF09001C2740AF0906A
:0C11050001C37402F09001C4741FF0904C
:0C11110001C5741BF09001C67411F09031
:0C111D0001C77415F09001C87405F09033
:0C11290001C97414F09001CA7415F09014
:0C11350001CB7411F09001CC741BF09001
:0C11410001CD7419F09001CE7413F090F1
:0C114D0001CF7417F09001D07410F090E6
:0C11590001D17403F09001D2741BF090DF
:0C11650001D37419F09001D47413F090C1
:0C11710001D57412F09001D6741BF090B0
:0C117D0001D7741AF09001D87409F090AA
:0B11890001D9E4F09001DA7411F0903D
:0C11940001DB7411F09001DC741BF09082
:0C11A00001DD7412F09001DE7417F09075
:0C11AC0001DF7410F09001E07412F0906C
:0C11B80001E17415F09001E27414F09055
:0C11C40001E37413F09001E4741FF0903C
:0C11D00001E5741BF09001E67411F09032
:0B11DC0001E77415F09001E8E4F090CA
:0B11E70001E97415F09001EAE4F090BB
:0D11F20001EB7415F09001EC741BF07A0015
:0311FF00BA08002B
:0512020040030212CCC4
:0A120700EA24A0FBE43400FCEA2412
:0A121100ADF582E43401F583E08BB3
:0A121B00828C83F0EA24A8FBE4347F
:0912250000FCEA24B5F582E43472
:0B122E0001F583E08B828C83F0EA2442
:08123900B0FBE43400FCEA24E0
:0A124100BDF582E43401F583E08B73
:0A124B00828C83F0EA24B8FBE4343F
:0912550000FCEA24C5F582E43432
:0B125E0001F583E08B828C83F0EA2412
:08126900C0FBE43400FCEA24A0
:0A127100CDF582E43401F583E08B33
:0A127B00828C83F0EA24C8FBE434FF
:0912850000FCEA24D5F582E434F2
:0B128E0001F583E08B828C83F0EA24E2
:08129900D0FBE43400FCEA2460
:0A12A100DDF582E43401F583E08BF3
:0A12AB00828C83F0EA24D8FBE434BF
:0912B50000FCEA24E5F582E434B2
:0C12BE0001F583E0FD8B828C83F00A02B6
:0212CA0011FF12
:0E12CC0090FFC27440F09002D3E4F090000A4C
:0512DA001222B87A00A9
:0312DF00BA08004A
:0A12E200503FEAC40354F8FB7C00FF
:0312EC00BC08003B
:0A12EF00502FEB24A0FDE43400FEB4
:0E12F900EC2DF582E43EF583E090FFD2F090FC
:0E13070002D3E4F090000AC002C003C004123A
:0B13150022B8D004D003D0020C80CC22
:031320000A80BC84
:0D1323009000E07402F09000E17403F0907F
:0C13300000E27407F09000E37402F090FB
:0C133C0000E47404F09000E57403F090ED
:0C13480000E67403F09000E77406F090DB
:0C13540000E87408F09000E97408F090C4
:0C13600000EA7402F09000EB7408F090BA
:0C136C0000EC7402F09000ED7404F090AE
:0C13780000EE7408F09000EF7408F09094
:0C13840000F07403F09000F17404F0908D
:0C13900000F27405F09000F37402F0907D
:0C139C0000F47405F09000F57404F0906B
:0C13A80000F67406F09000F77402F0905C
:0C13B40000F87405F09000F97406F09049
:0C13C00000FA7404F09000FB7406F0903A
:0C13CC0000FC7403F09000FD7406F0902B
:0C13D80000FE7407F09000FF7404F09019
:0C13E40001007403F09001017406F09009
:0C13F00001027402F09001037404F090FC
:0C13FC0001047406F09001057405F090E7
:0C14080001067402F09001077404F090DB
:0C14140001087405F09001097405F090C7
:0C142000010A7406F090010B7404F090B7
:0C142C00010C7402F090010D7405F090AA
:0C143800010E7403F090010F7407F09097
:0C14440001107407F09001117408F09082
:0C14500001127404F09001137403F0907A
:0C145C0001147407F09001157408F09062
:0C14680001167408F09001177403F09056
:0C14740001187406F09001197403F09048
:0C148000011A7407F090011B7408F09032
:0C148C00011C7406F090011D7407F09024
:0C149800011E7402F090011F7407F002A6
:0214A40007F34C
:0A14A6009001EDE4F09001EEF090EB
:0814B00001EFF09001F0F09053
:0914B80001F1E4F09001F2F09062
:0814C10001F3F09001F4F0903A
:0C14C90001F5741FF09001F67419F0900A
:0C14D50001F77415F09001F87411F0900C
:0C14E10001F97414F09001FA7415F090F9
:0C14ED0001FB7412F09001FC741AF090E6
:0C14F90001FD741FF09001FE7401F090E2
:0C15050001FF7405F09002007408F090E3
:0C15110002017411F09002027405F090C9
:0C151D0002037409F09002047412F090B4
:0C1529000205741BF09002067411F09093
:0B1535000207E4F0900208741BF09025
:0B15400002097411F090020AE4F09020
:0C154B00020B7411F090020C741BF09065
:0C155700020D7412F090020E740AF09065
:0C156300020F7409F09002107404F09064
:0C156F0002117419F09002127403F09045
:0C157B0002137419F0900214740BF0902D
:0C15870002157412F09002167416F09019
:0C15930002177413F09002187418F09006
:0C159F0002197412F090021A7416F090F9
:0C15AB00021B7413F090021C741BF090E3
:0C15B700021D741AF090021E7411F090D6
:0C15C300021F7415F09002207414F090C8
:0C15CF0002217412F09002227415F090BA
:0C15DB0002237410F0900224741FF090A2
:0C15E70002257413F09002267405F090A9
:0C15F30002277409F09002287409F0909F
:0C15FF0002297405F090022A7415F09087
:0D160B00022B7401F090022C741FF07A0085
:03161800BA08000D
:05161B0040030216E58A
:0A162000EA24A0FBE43400FCEA24F5
:0A162A00EDF582E43401F583E08B56
:0A163400828C83F0EA24A8FBE43462
:09163E0000FCEA24F5F582E43415
:0B16470001F583E08B828C83F0EA2425
:08165200B0FBE43400FCEA24C3
:0A165A00FDF582E43401F583E08B16
:0A166400828C83F0EA24B8FBE43422
:09166E0000FCEA2405F582E434D5
:0B16770002F583E08B828C83F0EA24F4
:08168200C0FBE43400FCEA2483
:0A168A000DF582E43402F583E08BD5
:0A169400828C83F0EA24C8FBE434E2
:09169E0000FCEA2415F582E43495
:0B16A70002F583E08B828C83F0EA24C4
:0816B200D0FBE43400FCEA2443
:0A16BA001DF582E43402F583E08B95
:0A16C400828C83F0EA24D8FBE434A2
:0916CE0000FCEA2425F582E43455
:0C16D70002F583E0FD8B828C83F00A0298
:0216E3001618D7
:0E16E50090FFC27440F09002D3E4F090000A2F
:0516F3001222B87A008C
:0316F800BA08002D
:0A16FB00503FEAC40354F8FB7C00E2
:03170500BC08001D
:0A170800502FEB24A0FDE43400FE96
:0E171200EC2DF582E43EF583E090FFD2F090DE
:0E17200002D3E4F090000AC002C003C004121D
:0B172E0022B8D004D003D0020C80CC05
:031739000A80BC67
:0D173C009000E07402F09000E17408F0905D
:0C17490000E27403F09000E37402F090E2
:0C17550000E47403F09000E57403F090D1
:0C17610000E67402F09000E77407F090BE
:0C176D0000E87407F09000E97402F090AE
:0C17790000EA7407F09000EB7408F09098
:0C17850000EC7408F09000ED7404F0908B
:0C17910000EE7408F09000EF7402F0907D
:0C179D0000F07406F09000F17405F0906C
:0C17A90000F27406F09000F37404F0905D
:0C17B50000F47405F09000F57404F0904E
:0C17C10000F67404F09000F77404F0903F
:0C17CD0000F87403F09000F97406F0902E
:0C17D90000FA7404F09000FB7406F0901D
:0C17E50000FC7405F09000FD7403F0900F
:0C17F10000FE7404F09000FF7407F090FC
:0C17FD0001007406F09001017404F090EB
:0C18090001027405F09001037406F090D9
:0C18150001047404F09001057405F090CB
:0C18210001067405F09001077407F090B8
:0C182D0001087406F09001097404F090AA
:0C183900010A7406F090010B7404F0909A
:0C184500010C7403F090010D7405F0908C
:0C185100010E7403F090010F7408F09079
:0C185D0001107407F09001117406F09067
:0C18690001127407F09001137403F0905A
:0C18750001147405F09001157408F09047
:0C18810001167407F09001177407F09036
:0C188D0001187408F09001197406F09026
:0C189900011A7407F090011B7408F09015
:0C18A500011C7406F090011D7407F09007
:0C18B100011E7405F090011F7408F00285
:0218BD0007F32F
:0A18BF0090022DE4F090022EF0904C
:0818C900022FF0900230F090B4
:0918D1000231E4F0900232F090C3
:0818DA000233F0900234F0909B
:0C18E2000235741FF09002367419F0906B
:0C18EE0002377415F09002387411F0906D
:0C18FA0002397414F090023A7415F0905A
:0C190600023B7412F090023C741AF09046
:0C191200023D741FF090023E7401F09042
:0C191E00023F7405F09002407408F09045
:0C192A0002417411F09002427405F0902C
:0C19360002437409F09002447412F09017
:0C1942000245741BF09002467411F090F6
:0B194E000247E4F0900248741BF09088
:0B19590002497411F090024AE4F09083
:0C196400024B7411F090024C741BF090C8
:0C197000024D7412F090024E740AF090C8
:0C197C00024F7409F09002507404F090C7
:0C19880002517419F09002527403F090A8
:0C19940002537419F0900254740BF09090
:0C19A00002557412F09002567416F0907C
:0C19AC0002577413F09002587418F09069
:0C19B80002597412F090025A7416F0905C
:0C19C400025B7413F090025C741BF09046
:0C19D000025D741AF090025E7411F09039
:0C19DC00025F7415F09002607414F0902B
:0C19E80002617412F09002627415F0901D
:0C19F40002637410F09002647417F0900D
:0C1A000002657413F09002667405F0900B
:0C1A0C0002677409F09002687409F09001
:0C1A180002697405F090026A7415F090E9
:0D1A2400026B7401F090026C741FF07A00E8
:031A3100BA0800F0
:051A34004003021AFE50
:0A1A3900EA24A0FBE43400FCEA24D8
:0A1A43002DF582E43402F583E08BF8
:0A1A4D00828C83F0EA24A8FBE43445
:091A570000FCEA2435F582E434B8
:0B1A600002F583E08B828C83F0EA2407
:081A6B00B0FBE43400FCEA24A6
:0A1A73003DF582E43402F583E08BB8
:0A1A7D00828C83F0EA24B8FBE43405
:091A870000FCEA2445F582E43478
:0B1A900002F583E08B828C83F0EA24D7
:081A9B00C0FBE43400FCEA2466
:0A1AA3004DF582E43402F583E08B78
:0A1AAD00828C83F0EA24C8FBE434C5
:091AB70000FCEA2455F582E43438
:0B1AC00002F583E08B828C83F0EA24A7
:081ACB00D0FBE43400FCEA2426
:0A1AD3005DF582E43402F583E08B38
:0A1ADD00828C83F0EA24D8FBE43485
:091AE70000FCEA2465F582E434F8
:0C1AF00002F583E0FD8B828C83F00A027B
:021AFC001A319D
:0E1AFE0090FFC27440F09002D3E4F090000A12
:051B0C001222B87A006E
:031B1100BA08000F
:0A1B1400503FEAC40354F8FB7C00C4
:031B1E00BC080000
:0A1B2100502FEB24A0FDE43400FE79
:0E1B2B00EC2DF582E43EF583E090FFD2F090C1
:0E1B390002D3E4F090000AC002C003C0041200
:0B1B470022B8D004D003D0020C80CCE8
:031B52000A80BC4A
:0D1B55009000E07402F09000E17403F09045
:0C1B620000E27403F09000E37402F090C5
:0C1B6E0000E47403F09000E57403F090B4
:0C1B7A0000E67402F09000E77407F090A1
:0C1B860000E87407F09000E97402F09091
:0C1B920000EA7407F09000EB7408F0907B
:0C1B9E0000EC7408F09000ED7404F0906E
:0C1BAA0000EE7408F09000EF7402F09060
:0C1BB60000F07406F09000F17405F0904F
:0C1BC20000F27406F09000F37404F09040
:0C1BCE0000F47405F09000F57404F09031
:0C1BDA0000F67404F09000F77404F09022
:0C1BE60000F87403F09000F97406F09011
:0C1BF20000FA7404F09000FB7406F09000
:0C1BFE0000FC7405F09000FD7403F090F2
:0C1C0A0000FE7404F09000FF7407F090DE
:0C1C160001007406F09001017404F090CD
:0C1C220001027405F09001037406F090BC
:0C1C2E0001047404F09001057405F090AE
:0C1C3A0001067405F09001077407F0909B
:0C1C460001087406F09001097404F0908D
:0C1C5200010A7406F090010B7404F0907D
:0C1C5E00010C7403F090010D7405F0906F
:0C1C6A00010E7403F090010F7408F0905C
:0C1C760001107407F09001117406F0904A
:0C1C820001127407F09001137403F0903D
:0C1C8E0001147405F09001157408F0902A
:0C1C9A0001167407F09001177407F09019
:0C1CA60001187408F09001197406F09009
:0C1CB200011A7407F090011B7408F090F8
:0C1CBE00011C7406F090011D7407F090EA
:0C1CCA00011E7405F090011F7408F00268
:021CD60007F312
:0A1CD800E58290026FF090037E7425
:0A1CE200E0F0A37400F0A3E4F0901A
:0B1CEC0000A075F0001227D5AA82901E
:0D1CF70002D3E4F0900064C0021222B89005
:0A1D0400026FE0FB90026DE0FC901E
:0E1D0E000127F08B82C003C004120744D004EA
:0C1D1C00D0031BEBC454F024E0FBE434C3
:0C1D280000FDEC142BF582E43DF583E097
:0E1D3400FB1B8B8212079C90026EE0F5821260
:071D4200253FD0028A822236
:0E1D4900E582900270F0900270E0FABA010894
:081D570090FFC27480F0801FB0
:0B1D5F00BA020890FFC274C0F08014AC
:0B1D6A00BA030890FFC27490F08009DB
:091D7500BA040690FFC274D0F01C
:0B1D7E009002D3E4F090000A0222B8AB
:0E1D8900E582900274F0900274E0FA1AEAC447
:0A1D970054F024E0FAE43400FB905D
:0B1DA1000271E0142AFAE43BFB7C0016
:031DAC00BC080070
:0A1DAF00502DEC2498FDE43400FEF2
:0D1DB9008A828B83E0FF1FEFC40354F824DF
:0A1DC600A0FFE43400F8EC2FF582D2
:0E1DD000E438F583E0FF8D828E83F00C80CE28
:0A1DDE00900272E0142498FAE43435
:0C1DE80000FB8A048B05900273E0FE9063
:0E1DF40003857405C39EF0758202C002C00311
:0E1E0200C004C00512328CAE82D005D004D0D0
:0E1E100003D0028C828D83E02E8A828B83F0B9
:0E1E1E0090FFC27440F09002D3E4F090000AEE
:051E2C001222B87A004B
:031E3100BA0800EC
:0A1E34005021EA2498F582E43400FE
:0D1E3E00F583E090FFD2F09002D3E4F09025
:0C1E4B00000AC0021222B8D0020A80DA9D
:011E57002268
:0E1E580090FFC27401F09002D3E4F090000AF3
:0E1E66001222B890FFC2743FF09002D3E4F055
:0D1E740090000A1222B890FFC27406F09090
:0E1E810002D3E4F090000A1222B890FFC2745F
:0D1E8F000CF09002D3E4F090000A0222B89B
:0E1E9C00AAF0AB83E582900277F0A3EBF0A3EF
:0C1EAA00EAF090027AE4F090027BF090E5
:081EB600027CF090027DF09027
:091EBE00027EE4F090027FF09036
:081EC7000280F0900281F0900E
:091ECF000282E4F0900283F0901D
:081ED8000284F0900285F090F5
:091EE0000286E4F0900287F09004
:081EE9000288F0900289F090DC
:091EF100028AE4F090028BF090EB
:0C1EFA000277E0FAA3E0FBA3E0FC7D000F
:0E1F0600ED2AFEE43BFF8C008E828F8388F074
:0C1F14001234B8FE600FED247BF582E46F
:091F20003402F583EEF00D80DDC2
:0E1F2900900276E0FABA010890027A7401F094
:021F3700803AEE
:0E1F3900BA022C8D037C007410C39BFBE49C49
:0E1F4700FC9003967402F0E4A3F08B828C836E
:0E1F5500C005123440AB82AC83D00590027AF6
:051F6300EB04F0800B0F
:0B1F6800BA030890027A7410C39DF0C9
:0A1F7300900275E0FA90027AE09007
:0E1F7D000127F08A82C005120744D0058D02AC
:021F8B007B00D9
:0C1F8D00C3EB9A501BEB247BF582E4347C
:0B1F990002F583E0F582C002C00312D5
:091FA400079CD003D0020B80E081
:011FAD002211
:0E1FAE00AAF0AB83E58290028FF0A3EBF0A3C4
:0E1FBC00EAF09002927401F0900293E4F0902B
:081FCA000294F0900295F090E2
:091FD2000296F0900297E4F090F1
:081FDB000298F0900299F090C9
:091FE300029AF090029BE4F090D8
:081FEC00029CF090029DF090B0
:091FF400029EF090029FE4F090BF
:081FFD0002A0F09002A1F09097
:0920050002A2F09002A3E4F090A5
:08200E0002A4F09002A5F0907D
:0920160002A6F09002A7E4F0908C
:08201F0002A8F09002A9F09064
:0920270002AAF09002ABE4F09073
:0820300002ACF09002ADF0904B
:0920380002AEF09002AFE4F0905A
:0820410002B0F09002B1F09032
:0920490002B2F09002B3E4F09041
:0820520002B4F09002B5F09019
:09205A0002B6F09002B7E4F09028
:0820630002B8F09002B9F09000
:09206B0002BAF09002BBE4F0900F
:0820740002BCF09002BDF090E7
:09207C0002BEF09002BFE4F090F6
:0820850002C0F09002C1F090CE
:09208D0002C2F09002C3E4F090DD
:0E20960002C4F090028FE0FAA3E0FBA3E0FC8E
:0220A4007D00BD
:0E20A600ED2AFEE43BFF8C008E828F8388F0D3
:0C20B4001234B8FE600FED2493F582E4B6
:0920C0003402F583EEF00D80DD21
:0A20C900ED2493F582E43402F58360
:0920D300EEF090028CE0F50B9098
:0E20DC00028DE0FBA3E0FCEB249CFBEC34FF48
:0720EA00FCEDFE14FF78007D
:0820F100C3E89D400302222C0C
:0A20F900900292E0F9E4B90101043D
:06210300F9700302222C1A
:0C210900850B82C003C004C005C006C0E6
:0E21150007C000C001121D49D001D000D00744
:0B212300D006D005D004D003750800E2
:0C212E0074F025084039E96036C007E570
:07213A00082493F582E43450
:0C21410002F583E0FFF582C003C004C07B
:0E214D0005C006C007C000C00112079CD001EB
:0D215B00D000D007D006D005D004D0030579
:0521680008D00780C152
:0E216D00758201C003C004C005C006C007C0D3
:0E217B000012253FD000D007D006D005D004BA
:0E218900D0039002D3E4F08B828C83C003C09D
:0E21970004C005C006C007C0001222B8D00068
:0E21A500D007D006D005D004D003900293E0FE
:0C21B300F50AC007900292E0FFE4BF01B3
:0221BF00010419
:0721C100F508750901D007C4
:0A21C800C3E5099E5028E5086024D5
:0A21D200C007E509142493FFE4346C
:0521DC0002F9E50924F1
:0A21E10093F582E43402F583E0FA7E
:0B21EB008F828983F00509D00780D2A5
:0A21F600EF2493F582E43402F58330
:0C220000E50AF0C003C004C005C006C021
:0E220C0007C0001227BDAA82D000D007D0065E
:0E221A00D005D004D003900292EAF0EA6004EE
:04222800080220F197
:07222C00900292E0F582220E
:0C223300E5829002C7F09002C5E0FA902E
:0A223F0002C6E0900127F08A821227
:0922490007449002C7E0F582028F
:02225200079CE7
:0C225400E5829002CBF09002C9E0FA9005
:0A22600002CAE0FB9002CBE0FC9004
:0A226A0002C8E0FD900271EBF09055
:0E2274000272ECF0900273EDF08A82C002C09C
:0E22820003121D89D003D002900127EBF08AD1
:0A2290008212074475820002079CC9
:0E374A00630063000000630000007D00630068
:0E37580000005400000000000000A700000068
:0E376600000000007D0000000000A700000031
:0E3774000000C7000000000095000000850066
:0E37820000008D0095000000A70063005400B9
:0E3790004B0000005E005400000063000000CB
:0E379E007D0070008500000000007D0000002E
:0E37AC000000A70000000000C70000000000A1
:0E37BA0095000000850000008D0095000000C5
:0E37C800A700630054004B0000005E00540098
:0E37D6000000630000007D0070008500000010
:0237E4000000E3
:0E37E6000F0F0F0F0F0F0F0F0F0F0F0F0F0F03
:0E37F4000F0F0F0F0F0F0F0F0F0F0F0F0F0FF5
:0E3802000F0F0F0F0C0C0C0F0F0F0F0F0F0FEF
:0E3810000F0F0F0F0F0F0F0F0F0F0F0F0F0FD8
:0E381E000F0F0F0F0F0F0F0C0C0C0F0F0F0FD3
:08382C000F0F0F0F0F0F0F0F1C
:0E383400FB007D002A0195001A018D000000A6
:0E3842000000FB007D002A0195001A018D0098
:0E385000000000007801BC00BF01DF00A601EF
:0E385E00D300000000007801BC00BF01DF00B5
:0E386C00A601D30000000000D300ED00DF0035
:0E387A00ED00D300D3003C014F01ED00FB0038
:0E388800B100BC008E018D0095009E00D300A3
:0E3896000A011A012A013C0100000000000096
:0E38A4000C0C0C0C0C0C06030C0C0C0C0C0C7D
:0E38B20006030C0C0C0C0C0C06030C0C0C0C7E
:0E38C0000C0C0606121212060606060606126A
:0E38CE0012121212120A0A0A0A0A0A0303034D
:0E38DC0085008500000085007000700000006F
:0E38EA00700095009500000095008500850097
:0438F80000000000CC
:0E38FC0006060606060606060606060606066A
:02390A000606AF
:04390C00FB000000BC
:02391000060CA3
:04391200ED000000C4
:02391600060C9D
:0139180000AE
:0E229A00758C00758A00758921758DFD758B18
:0E22A800FDD28E7590009002D1E4F09002D02D
:0222B600F02214
:0E22B800AA83E5829002D4F0A3EAF09002D24D
:0D22C6007401F09002D0E0FA60030223568C
:0E22D3009002D3E0FB607C9002D4E0FBA3E01D
:0E22E100FC9003887441F0E4A3F08B828C83A0
:0E22EF00C003C0041232C0AD82AE83D004D052
:0E22FD00039002CCEDF0A3EEF090039174413B
:0E230B00F0E4A3F08B828C83123393AB82AC90
:0D2319008390038FEBF0A3ECF09003E8122B
:0E2326003373AB82AC83E4FDFE74FFC39BFBFC
:0E23340074FF9CFCE49DFDE49EFE9002CEEB47
:0C234200F0A3ECF0D28C9002D07401F0FB
:08234E009002D0E0603D80F830
:0D235600EA70389002CC7401F0A3E4F0901E
:0E23630002D4E0FAA3E0FBE4FCFD74FFC39A91
:0E237100FA74FF9BFBE49CFCE49DFD9002CE01
:07237F00EAF0A3EBF0D28CA1
:0B2386009002D1E060FA9002D1E4F078
:012391002229
:0E239200C0E0C082C083C002C003C004C0050A
:0E23A000C006C007C0D075D000758C00758ACD
:0E23AE0000C28DC28C9002CCE0FAA3E0FBC30B
:0E23BC0074019AE49B5014EA24FFFCEB34FFFA
:0D23CA00FD9002CCECF0A3EDF0D28C803E33
:0E23D700BA0132BB002F9002CEE0FCA3E0FD65
:0E23E5008C067F008E8C8D8A9002CCE0FCA3CB
:0723F300E0FD1CBCFF011D11
:0E23FA009002CCECF0A3EDF09002D17401F053
:04240800D28C8009E9
:09240C00EA4B70059002D0E4F0E7
:0E241500D0D0D007D006D005D004D003D0021E
:07242300D083D082D0E0322B
:0E242A00AA83E5829002DFF0A3EAF09002DDC3
:0E243800E0FAA3E0FB9002DFE0FCA3E0FD90E1
:0E244600038FEAF0A3EBF08C828D83C004C0FC
:0E24540005123373AA82AB8390038874E8F0FC
:0E246200A37403F08A828B831232C0AA82AB6D
:0E24700083D005D0047E007F008C008D01E437
:05247E00F50CF50DF561
:032483000EF50F44
:08248600C3E50C9AE50D9BE58E
:0A248E000E9EE50F64808FF063F0EE
:0D2498008095F0504F90FFE474FFF0E4F5E4
:0324A50010F5111E
:0A24A800C3E51098E51199500A05EC
:0624B20010E4B510F10575
:0324B8001180EDA3
:0A24BB0090FFE4E4F0E4F510F511E1
:0A24C500C3E5109CE5119D500A05C7
:0624CF0010E4B510F10558
:0324D5001180ED86
:0724D800050CE4B50C0C0536
:0524DF000DB50D07051D
:0524E4000EB50E9E057F
:0124E9000FE3
:0224EA00809AD6
:0124EC0022CD
:0E24ED00AA83E5829002E3F0A3EAF09002E1F8
:0E24FB00E0FAA3E0FB900388EAF0A3EBF09078
:0E25090003E81232C0AA82AB839002E3E0FC2A
:0E251700A3E0FD9002DDEAF0A3EBF08C828DD4
:0D25250083C002C00312242AD003D002900C
:0D25320002DDEAF0A3EBF090000002242A85
:0E253F00E5829002E5F09002E5E0FABA016450
:0E254D00900906E0FBA3E0FC8B05CD25E0CD58
:0A255B0033FEED24CAF582EE3408C9
:0C256500F583E0FDA3E0FEEB24EAF58224
:0C257100EC3408F583E09002E1F0A3E4F4
:0E257D00F08D828E831224ED900906E0FBA300
:0E258B00E0FC74012BFDE43CFEC3ED9410EE69
:0E2599009400500C90090674012BF0E43CA352
:0225A700F02220
:0825A900900906E4F0A3F02202
:0E25B100BA0264900906E0FBA3E0FC8B05CDA6
:0C25BF0025E0CD33FEED2422F582EE3441
:0A25CB0008F583E0FDA3E0FEEB2419
:0A25D50092F582EC3408F583E090E3
:0E25DF0002E1F0A3E4F08D828E831224ED90D1
:0E25ED000906E0FBA3E0FC74012BFDE43CFEBC
:0E25FB00C3ED9438EE9400500C900906740164
:072609002BF0E43CA3F022DA
:08261000900906E4F0A3F0229A
:0E261800BA0364900906E0FBA3E0FC8B05CD3D
:0C26260025E0CD33FEED2438F582EE34C3
:0A26320007F583E0FDA3E0FEEB24B2
:0A263C00D4F582EC3407F583E0903A
:0E26460002E1F0A3E4F08D828E831224ED9069
:0E2654000906E0FBA3E0FC74012BFDE43CFE54
:0E266200C3ED944EEE9400500C9009067401E6
:072670002BF0E43CA3F02273
:08267700900906E4F0A3F02233
:0A267F00BA045F900906E4F0A3F02E
:0E268900900906E0FBA3E0FCC3EB9402EC9486
:0426970000400122DC
:0C269B008B05ECCD25E0CD33FEED24FADC
:0C26A700F582EE3408F583E0FDA3E0FEB0
:0A26B300EB24FEF582EC3408F583F9
:0D26BD00E09002E1F0A3E4F08D828E831224
:0B26CA0024ED900906E0FBA3E0FC906B
:0C26D500090674012BF0E43CA3F080A87F
:0A26E100BA055E900906E4F0A3F0CC
:0E26EB00900906E0FAA3E0FBC3EA9402EB9428
:0E26F9000050468A04EBCC25E0CC33FDEC24E7
:0A27070000F582ED3409F583E0FCD3
:0A271100A3E0FDEA2404F582EB3496
:0C271B0009F583E09002E1F0A3E4F08CEB
:0E272700828D831224ED900906E0FAA3E0FBF8
:0D27350090090674012AF0E43BA3F080A98E
:012742002274
:0E391900630063000000630000007D00630097
:0E39270000005400000000000000A700000097
:0E393500000000007D0000000000A700000060
:0E3943000000C7000000000095000000850095
:0E39510000008D0095000000A70063005400E8
:0E395F004B0000005E005400000063000000FA
:0E396D007D0070008500000000007D0000005D
:0E397B000000A70000000000C70000000000D0
:0E39890095000000850000008D0095000000F4
:0E399700A700630054004B0000005E005400C7
:0E39A5000000630000007D007000850000003F
:0239B300000012
:0E39B5000F0F0F0F0F0F0F0F0F0F0F0F0F0F32
:0E39C3000F0F0F0F0F0F0F0F0F0F0F0F0F0F24
:0E39D1000F0F0F0F0C0C0C0F0F0F0F0F0F0F1F
:0E39DF000F0F0F0F0F0F0F0F0F0F0F0F0F0F08
:0E39ED000F0F0F0F0F0F0F0C0C0C0F0F0F0F03
:0839FB000F0F0F0F0F0F0F0F4C
:0E3A0300FB007D002A0195001A018D000000D5
:0E3A11000000FB007D002A0195001A018D00C7
:0E3A1F00000000007801BC00BF01DF00A6011E
:0E3A2D00D300000000007801BC00BF01DF00E4
:0E3A3B00A601D30000000000D300ED00DF0064
:0E3A4900ED00D300D3003C014F01ED00FB0067
:0E3A5700B100BC008E018D0095009E00D300D2
:0E3A65000A011A012A013C01000000000000C5
:0E3A73000C0C0C0C0C0C06030C0C0C0C0C0CAC
:0E3A810006030C0C0C0C0C0C06030C0C0C0CAD
:0E3A8F000C0C06061212120606060606061299
:0E3A9D0012121212120A0A0A0A0A0A0303037C
:0E3AAB0085008500000085007000700000009E
:0E3AB9007000950095000000950085008500C6
:043AC70000000000FB
:0E3ACB00060606060606060606060606060699
:023AD9000606DF
:043ADB00FB000000EC
:023ADF00060CD3
:043AE100ED000000F4
:023AE500060CCD
:023AE7000000DD
:0E274300E582900378F020990B900378E0F582
:0127510099EE
:0527520010990280FB5C
:01275700225F
:0E275800E582900379F0900379E0FA75F00ABB
:0E276600842430F582C002122743D00275F0A1
:0E2774000AEA84E5F02430F5821227437582CC
:042782000A022743DD
:05278600AA998A8222DD
:07278B00900908E0F582222D
:0E279200E58290037DF090037AE0FAA3E0FB6D
:0E27A000A3E0FC900375EAF0A3EBF0A3ECF0CD
:0B27AE0090037DE0FA60047598502253
:0427B90075984022AD
:0E27BD00309811122786AA82900908EAF0BA15
:0627CB00200475820022CB
:0427D10075820122EA
:0E27D500AAF0AB83E582900381F0A3EBF0A3A2
:0E27E300EAF09003847401F0900375E0FAA30D
:0E27F100E0FBA3E0FC8A828B838CF01234B8EC
:0E27FF00FD74012AFEE43BFF8C008E828F8366
:0E280D0088F01234B8FE74022AFFE43BF88C07
:0E281B00018F82888389F01234B8FF74032A7B
:0E282900FAE43BFB8A828B838CF01234B8FAFF
:0B2837009002C8EEF09002C9EFF09094
:0D28420002CAEAF08D82122254209803028F
:02284F003288CD
:0E285100122786AA82900908EAF0BA77028060
:01285F000870
:05286000BA57028003DD
:03286500022AFE46
:0E286800900375E0FBA3E0FCA3E0FD8B828CE7
:0E287600838DF01234B8FEFF78001FBFFF0103
:01288400183B
:0E288500C3E49F748088F063F08095F04003F8
:0328930002298097
:0E28960074022BFFE43CF88D018F8288838949
:0C28A400F01234B8780024FFF512E8347C
:0828B000FFF51390037EE0F533
:0828B80014A3E0F515A3E0F5FF
:0428C00016AF12E558
:0C28C40013C454F0CFC4CF6FCF54F0CF3A
:0928D0006FF8EF2514F514E8354A
:0A28D90015F51574032BFFE43CF81D
:0D28E3008D018F82888389F01234B814258E
:0728F00014FFE43515F8A9FF
:0C28F700168F82888389F01234B8FF33FA
:0C29030095E0F8EF24FFF514E834FFF530
:06290F0015900381E0F5C4
:0829150017A3E0F518A3E0F59B
:04291D0019AF14E5F5
:0C29210015C40354F8CFC403CF6FCF548B
:0A292D00F8CF6FF8EF2517FFE8352B
:0929370018F8A919EE24FE2FF591
:0629400017E438F51889C8
:0C2946001974012BFFE43CF88D018F8216
:0E295200888389F01234B8FF9003857405C3A2
:0C2960009FF075820212328CAF82851746
:08296C00828518838519F01221
:0A29740034B8F8900384EF58F00225
:02297E002A9A93
:05298000E4BE010104AA
:06298500FE7003022A7F30
:0E298B0074022BFFE43CF88D018F8288838953
:0C299900F01234B8FF24FE4003022A7F35
:0B29A5007800EF24FEF517E834FFF582
:0629B0001890037EE0F523
:0829B60014A3E0F515A3E0F500
:0429BE0016AF17E554
:0C29C20018C454F0CFC4CF6FCF54F0CF36
:0929CE006FF8EF2514F517E83548
:0429D70015F5188555
:0A29DB00161974032BFFE43CF88D7D
:0C29E500018F82888389F01234B8142519
:0729F10017FFE43518F8A9F7
:0C29F800198F82888389F01234B8FF33F5
:0C2A040095E0F8EF24FFF517E834FFF52B
:062A100018900381E0F5BF
:082A160014A3E0F515A3E0F59F
:042A1E0016AF17E5F3
:0C2A220018C40354F8CFC403CF6FCF5486
:0A2A2E00F8CF6FF8EF2514FFE8352C
:082A380015F8A91674072FF52B
:062A400017E438F51889C7
:0C2A46001974012BFFE43CF88D018F8215
:0E2A5200888389F01234B8FF9003857405C3A1
:0C2A60009FF075820212328CAF82851745
:082A6C00828518838519F01220
:0B2A740034B8F8900384EF58F0801B8A
:0E2A7F00EE601874022BFBE43CFC8B828C830F
:0D2A8D008DF01234B8FBBB010475820022ED
:0A2A9A00900384E0FB600302328326
:0E2AA400900375E0FBA3E0FCA3E0FD8B828CA9
:0C2AB200838DF01234B8FEBE0102800ECD
:0E2ABE001E8B828C838DF0EE12335A0232830F
:0E2ACC0074022BFEE43CFF8D008E828F838807
:0B2ADA00F01234B8F9B9010302328396
:0E2AE5008B828C838DF0740812335A198E8206
:0B2AF3008F8388F0E912335A0232830F
:052AFE00BA730280081C
:052B0300BA530280033B
:032B0800022D4A51
:0E2B0B00900375E0FBA3E0FCA3E0FD8B828C41
:0E2B1900838DF01234B8FEFF78001FBFFF015D
:012B27001895
:0E2B2800C3EF9407E8648094804003022C21E0
:0E2B360074022BFFE43CF88D018F82888389A6
:0C2B4400F01234B8780024FFF517E834D4
:082B5000FFF51890037EE0F58B
:082B580014A3E0F515A3E0F55C
:042B600016AF17E5B0
:0C2B640018C454F0CFC4CF6FCF54F0CF92
:092B70006FF8EF2514F517E835A4
:042B790015F51885B1
:0A2B7D00161974032BFFE43CF88DD9
:0C2B8700018F82888389F01234B8142575
:072B930017FFE43518F8A953
:0C2B9A00198F82888389F01234B8FF3351
:0C2BA60095E0F8EF24FFF517E834FFF588
:062BB20018900381E0F51C
:082BB80014A3E0F515A3E0F5FC
:042BC00016AF17E550
:0C2BC40018C40354F8CFC403CF6FCF54E3
:0A2BD000F8CF6FF8EF2514FFE83589
:072BDA0015F8A916EE2FF516
:062BE10017E438F5188925
:0C2BE7001974012BFEE43CFF8D008E826F
:0E2BF3008F8388F01234B8FE9003857405C3FA
:0C2C01009EF075820212328CAE828517A4
:082C0D00828518838519F0127D
:0A2C150034B8FF900384EE5FF00274
:022C1F002CE6A1
:0E2C210074022BFEE43CFF8D008E828F8388B0
:0E2C2F00F01234B8FE90037EE0FFA3E0F8A39D
:0C2C3D00E0F9EEC454F02FF517E438F570
:0A2C490018891974032BFEE43CFF08
:0D2C53008D008E828F8388F01234B8142516
:072C600017FEE43518FFA880
:0C2C6700198E828F8388F01234B8FE337F
:0C2C730095E0FFEE24FFF517EF34FFF5AD
:062C7F0018900381E0F54E
:082C850014A3E0F515A3E0F52E
:042C8D0016AF17E582
:0C2C910018C40354F8CFC403CF6FCF5415
:0A2C9D00F8CF6FFEEF2514FFEE35AF
:092CA70015FEA8160BBB00010C80
:0E2CB0008B828C838DF01234B8FB90038574F8
:0E2CBE0005C39BF0758202C006C007C000125D
:0E2CCC00328CAB82D000D007D0068F828E8370
:0C2CDA0088F01234B8FF900384EB5FF028
:0A2CE600900384E0FB6003023283D8
:0E2CF000900375E0FBA3E0FCA3E0FD8B828C5B
:0C2CFE00838DF01234B8FEBE0802800E78
:0E2D0A000E8B828C838DF0EE12335A023283D0
:0E2D180074022BFEE43CFF8D008E828F8388B8
:0B2D2600F01234B8F9B9040302328344
:0E2D31008B828C838DF0740112335A098E82CE
:0B2D3F008F8388F0E912335A023283C0
:052D4A00BA64028008DC
:052D4F00BA44028003FC
:032D5400022FE764
:0E2D5700900375E0FBA3E0FCA3E0FD74012BEC
:0D2D6500FEE43CFF8D008E828F8388F0120B
:0B2D720034B8FEFF78000FBF0001081E
:0E2D7D00C3EF9406E8648094804003022E7138
:0E2D8B0074022BFFE43CF88D018F828883894F
:0C2D9900F01234B8780024FFF517E8347D
:082DA500FFF51890037EE0F534
:082DAD0014A3E0F515A3E0F505
:042DB50016AF17E559
:0C2DB90018C454F0CFC4CF6FCF54F0CF3B
:092DC5006FF8EF2514F517E8354D
:042DCE0015F518855A
:0A2DD200161974032BFFE43CF88D82
:0C2DDC00018F82888389F01234B814251E
:072DE80017FFE43518F8A9FC
:0C2DEF00198F82888389F01234B8FF33FA
:0C2DFB0095E0F8EF24FFF517E834FFF531
:062E070018900381E0F5C4
:082E0D0014A3E0F515A3E0F5A4
:042E150016AF17E5F8
:0C2E190018C40354F8CFC403CF6FCF548B
:0A2E2500F8CF6FF8EF2514F517E859
:052E2F003515F51885C2
:092E340016198B828C838DF012BB
:062E3D0034B8142517F55E
:052E430017E43518F54D
:0C2E480018EE04900385D39405F4F07597
:0B2E5400820212328CAF82851782854B
:062E5F0018838519F01232
:0A2E650034B8F8900384EF58F0022F
:022E6F002F7CB6
:052E7100E4BE050104B0
:062E7600FE7003022F6153
:0E2E7C0074032BFFE43CF88D018F828883895C
:0C2E8A00F01234B8F517C3941040030296
:022E96002F61AA
:0E2E980074022BF8E43CF98D07888289838F41
:0C2EA600F01234B87F0024FFF514EF3464
:082EB200FFF51590037EE0F529
:082EBA001AA3E0F51BA3E0F5EB
:042EC2001CAF14E548
:0C2EC60015C454F0CFC4CF6FCF54F0CF30
:0A2ED2006FF8EF251AFFE8351BF832
:0A2EDC00A91CE5172FFFE438F88F5A
:0E2EE60082888389F01234B8FF3395E0F8EF4C
:0A2EF40024FFF51AE834FFF51B90E7
:082EFE000381E0F517A3E0F5E4
:062F060018A3E0F519AF6D
:0A2F0C001AE51BC40354F8CFC403F8
:0C2F1600CF6FCF54F8CF6FF8EF2517F500
:052F22001AE83518F566
:032F27001B8519EE
:0C2F2A001C8B828C838DF01234B81425AF
:052F36001AF51AE43554
:042F3B001BF51B90D7
:0E2F3F0003857404F075820212328CAF828515
:062F4D001A82851B83853A
:072F53001CF01234B8F890E5
:072F5A000384EF58F0801B17
:0E2F6100EE601874032BFBE43CFC8B828C8327
:0D2F6F008DF01234B8FBBB100475820022F7
:0A2F7C00900384E0FB60030232833F
:0E2F8600900375E0FBA3E0FCA3E0FD74012BBB
:0D2F9400FEE43CFF8D008E828F8388F012DA
:082FA10034B8F9B90502800EF5
:0E2FA900098E828F8388F0E912335A02328338
:0E2FB70074032BFBE43CFC8B828C838DF012A8
:092FC50034B8F9B910030232839B
:0E2FCE008E828F8388F0740112335A098B8231
:0B2FDC008C838DF0E912335A0232831F
:052FE700BA6102800840
:052FEC00BA4102800360
:032FF10002328326
:0E2FF400900375E0FAA3E0FBA3E0FC74012A51
:0D300200FDE43BFE8C078D828E838FF01263
:0E300F0034B8FD7F0024FEFEEF34FFFFC374D3
:0E301D00FF9E747F8FF063F08095F0400302F9
:02302B0031155D
:0E302D0074022AFEE43BFF8C008E828F8388A3
:0C303B00F01234B87F0024FFF51AEF34C7
:08304700FFF51B90037EE0F58C
:08304F0017A3E0F518A3E0F55A
:0430570019AF1AE5AE
:0C305B001BC454F0CFC4CF6FCF54F0CF93
:093067006FFEEF2517F51AEE3596
:0430700018F51B85AF
:0A307400191C74032AF9E43BFE8CDA
:0C307E000789828E838FF01234B814256D
:07308A001AFEE4351BFFA84C
:0C3091001C8E828F8388F01234B8FE334E
:0C309D0095E0FFEE24FFF51AEF34FFF57C
:0630A9001B900381E0F51D
:0830AF0017A3E0F518A3E0F5FA
:0430B70019AF1AE54E
:0C30BB001BC40354F8CFC403CF6FCF54E4
:0A30C700F8CF6FFEEF2517FFEE357E
:0A30D10018FEA8198A828B838CF088
:0E30DB001234B8142FFFE43EFEED149003856E
:0E30E900D39405F4F0758202C006C007C00043
:0E30F70012328CA982D000D007D0068F828EB4
:0E3105008388F01234B8FF900384E95FF00273
:02311300322068
:05311500E4BD0101040E
:06311A00FD700302320506
:0E31200074032AFEE43BFF8C008E828F8388AE
:0C312E00F01234B8FE24FE40030232050B
:0E313A0074022AFFE43BF88C018F828883899F
:0C314800F01234B8780024FFF51AE834C7
:08315400FFF51B90037EE0F57E
:08315C0017A3E0F518A3E0F54C
:0431640019AF1AE5A0
:0C3168001BC454F0CFC4CF6FCF54F0CF85
:0A3174006FF8EF2517FFE83518F893
:0C317E00A919EE24FE2FFFE438F88F8220
:0E318A00888389F01234B8FF3395E0FEEF24FD
:09319800FFF51AEE34FFF51B905F
:0831A1000381E0F517A3E0F53E
:0631A90018A3E0F519AFC8
:0A31AF001AE51BC40354F8CFC40353
:0C31B900CF6FCF54F8CF6FFEEF2517FF4B
:0A31C500EE3518FEA8198A828B83EC
:0E31CF008CF01234B8142FFFE43EFE900385FE
:0E31DD00E4F0758202C006C007C00012328CFA
:0E31EB00A982D000D007D0068F828E8388F094
:0C31F9001234B8FF900384E95FF0801BE3
:0E320500ED601874032AFAE43BFB8A828B8387
:0D3213008CF01234B8FABA01047582002262
:0E322000900384E0FA705C900375E0FAA3E07E
:0E322E00FBA3E0FC74012AFDE43BFE8C078D3F
:0E323C00828E838FF01234B8F8B80102800D34
:0D324A00188D828E838FF0E812335A802C8D
:0E32570074032AFAE43BFB8A828B838CF0120C
:0832650034B8F8B8010280162C
:0E326D008D828E838FF0740512335A188A8278
:08327B008B838CF0E812335A3A
:053283001207F3C298E0
:043288007582012228
:013AE90000DC
:0D328C00E582900386F09003877401F090B6
:0B3299000386E0FA900385E0FB7C0058
:0E32A400C3EC9B5010900387E0FD9003878DD4
:0732B200F0EAA4F00C80EB30
:0732B900900387E0F582227B
:0E32C000AA83E58290038AF0A3EAF090038CC3
:0E32CE00E4F0A3F0900388E0FAA3E0FB7C108C
:0C32DC0090038AE0FDA3E0FE339200EEB8
:0E32E800CD25E0CD33FE90038AEDF0A3EEF08D
:0E32F60090038CE0FDA3E0CD25E0CD33FE90EB
:0B330400038CEDF0A3EEF030001290FF
:0E330F00038CE0FDA3E0FE90038C74014DF0F2
:03331D00A3EEF02C
:0E33200090038CE0FDA3E0FEC3ED9AEE9B400F
:0D332E001D90038CEDC39AF0EE9BA3F09070
:0E333B00038AE0FDA3E0FE90038A74014DF0CA
:03334900A3EEF000
:0E334C00DC8E90038AE0FAA3E08A82F58322E9
:06004200E478FFF6D8FD92
:08002000796FE94405601B7AC9
:050028000690357B7815
:03002D009A75A021
:0A00300003E493F2A308B8000205F0
:08003A00A0D9F4DAF275A0FF71
:0E335A0020F71030F6118883A88220F507F6C0
:05336800A8837583003D
:01336D00223D
:03336E00F280F7F3
:02337100F02248
:0E337300AA83AB828BF090038FE0A4F8A9F040
:0E3381008AF0E0A429F98BF0A3E0A429F583DB
:04338F0088822222EC
:0E339300AA83E582900393F0A3EAF0900395DD
:0C33A100E4F0900393E0FAA3E0FB7C0052
:0E33AD00900391E0FDA3E0FE235401FF703772
:0E33BB00EECD25E0CD33FE900391EDF0A3EEB4
:0E33C900F0900391E0FDA3E0FEC3EA9DEB9EB1
:0E33D7005011EEC313CD13CDFE900391EDF017
:0533E500A3EEF08008DA
:0833EA000C900395ECF080BB90
:0533F200900395E0FAD4
:0E33F700900393E0FBA3E0FC900391E0FDA3A4
:0E340500E0FEC3EB9DEC9E400B900393EBC3E7
:063413009DF0EC9EA3F009
:0E341900900391E0FBA3E0C313CB13CBFC9018
:0E3427000391EBF0A3ECF08A031AEB70C39054
:0B3435000393E0FAA3E08A82F58322F3
:0E344000AA83E582900398F0A3EAF090039827
:0E344E00E0FAA3E0FB30E709C3E49AFCE49B3C
:03345C00FD8004EC
:04345F008A048B054B
:0E3463008C028D03900396E0FCA3E0FD33E4A1
:0D34710033FE6009C3E49CFFE49DF8800475
:04347E008C078D002A
:0E348200900388EFF0A3E8F08A828B83C006E7
:0E3490001232C0AA82AB83D006900398E0FCF3
:0E349E00A3E0FD33E4336E600CC3E49AFCE45B
:0734AC009BFD8C828D832241
:0534B3008A828B8322D8
:080048007800E84400600A7929
:030050000075A098
:0600530000E4F309D8FCF3
:08005900789AE84403600C7979
:0B00610004900000E4F0A3D8FCD9FAE2
:03001300758120D4
:0A0016001234D4E582600302000EEC
:0E34B80020F71430F6148883A88220F507E66A
:0634C600A88375830022BB
:0334CC00E280F7A4
:0334CF00E4932261
:0234D200E022F6
:0434D40075820022DB
:00000001FF
